{
  "contractName": "ChainOfTrustDidSsi",
  "abi": [
    {
      "inputs": [],
      "stateMutability": "nonpayable",
      "type": "constructor"
    },
    {
      "inputs": [
        {
          "internalType": "string",
          "name": "",
          "type": "string"
        }
      ],
      "name": "AuthenticationError",
      "type": "error"
    },
    {
      "inputs": [
        {
          "internalType": "string",
          "name": "",
          "type": "string"
        }
      ],
      "name": "DeactivatedDocument",
      "type": "error"
    },
    {
      "inputs": [
        {
          "internalType": "string",
          "name": "",
          "type": "string"
        }
      ],
      "name": "DidUrlResourceNotFound",
      "type": "error"
    },
    {
      "inputs": [
        {
          "internalType": "string",
          "name": "",
          "type": "string"
        }
      ],
      "name": "DuplicatedResource",
      "type": "error"
    },
    {
      "inputs": [
        {
          "internalType": "string",
          "name": "",
          "type": "string"
        }
      ],
      "name": "ExpiredCredential",
      "type": "error"
    },
    {
      "inputs": [
        {
          "internalType": "string",
          "name": "",
          "type": "string"
        }
      ],
      "name": "InvalidDidUrl",
      "type": "error"
    },
    {
      "inputs": [
        {
          "internalType": "string",
          "name": "",
          "type": "string"
        }
      ],
      "name": "InvalidHexDigit",
      "type": "error"
    },
    {
      "inputs": [
        {
          "internalType": "string",
          "name": "",
          "type": "string"
        }
      ],
      "name": "InvalidIssuanceDate",
      "type": "error"
    },
    {
      "inputs": [
        {
          "internalType": "string",
          "name": "",
          "type": "string"
        }
      ],
      "name": "InvalidIssuer",
      "type": "error"
    },
    {
      "inputs": [
        {
          "internalType": "string",
          "name": "",
          "type": "string"
        }
      ],
      "name": "InvalidProofSignature",
      "type": "error"
    },
    {
      "inputs": [
        {
          "internalType": "string",
          "name": "",
          "type": "string"
        }
      ],
      "name": "LastAuthentication",
      "type": "error"
    },
    {
      "inputs": [
        {
          "internalType": "string",
          "name": "",
          "type": "string"
        }
      ],
      "name": "RevokedCredential",
      "type": "error"
    },
    {
      "inputs": [
        {
          "internalType": "string",
          "name": "senderDid",
          "type": "string"
        },
        {
          "internalType": "string",
          "name": "senderAuthFragment",
          "type": "string"
        },
        {
          "components": [
            {
              "internalType": "string",
              "name": "issuer",
              "type": "string"
            },
            {
              "internalType": "uint256",
              "name": "issuanceTimestamp",
              "type": "uint256"
            },
            {
              "internalType": "uint256",
              "name": "expirationTimestamp",
              "type": "uint256"
            },
            {
              "internalType": "string",
              "name": "credentialStatusFragment",
              "type": "string"
            },
            {
              "components": [
                {
                  "internalType": "bytes32",
                  "name": "jwsSignatureR",
                  "type": "bytes32"
                },
                {
                  "internalType": "bytes32",
                  "name": "jwsSignatureS",
                  "type": "bytes32"
                },
                {
                  "internalType": "uint8",
                  "name": "jwsSignatureV",
                  "type": "uint8"
                },
                {
                  "internalType": "uint64",
                  "name": "createdTimestamp",
                  "type": "uint64"
                },
                {
                  "internalType": "string",
                  "name": "issuerAssertionMethodFragment",
                  "type": "string"
                }
              ],
              "internalType": "struct EcdsaSecp256k1Proof",
              "name": "proof",
              "type": "tuple"
            }
          ],
          "internalType": "struct CertificationCredential",
          "name": "certificationCredential",
          "type": "tuple"
        }
      ],
      "name": "updateTrustCertification",
      "outputs": [],
      "stateMutability": "nonpayable",
      "type": "function"
    },
    {
      "inputs": [
        {
          "internalType": "string",
          "name": "senderDid",
          "type": "string"
        },
        {
          "internalType": "string",
          "name": "senderAuthFragment",
          "type": "string"
        }
      ],
      "name": "removeTrustCertification",
      "outputs": [],
      "stateMutability": "nonpayable",
      "type": "function"
    },
    {
      "inputs": [
        {
          "internalType": "string",
          "name": "senderDid",
          "type": "string"
        },
        {
          "internalType": "string",
          "name": "senderAuthFragment",
          "type": "string"
        },
        {
          "internalType": "string",
          "name": "methodDidUrlFragment",
          "type": "string"
        },
        {
          "internalType": "enum VerificationMethodType",
          "name": "methodType",
          "type": "uint8"
        },
        {
          "internalType": "address",
          "name": "blockchainAccount",
          "type": "address"
        }
      ],
      "name": "addVerificationMethod",
      "outputs": [],
      "stateMutability": "nonpayable",
      "type": "function"
    },
    {
      "inputs": [
        {
          "internalType": "string",
          "name": "senderDid",
          "type": "string"
        },
        {
          "internalType": "string",
          "name": "senderAuthFragment",
          "type": "string"
        },
        {
          "internalType": "string",
          "name": "serviceDidUrlFragment",
          "type": "string"
        },
        {
          "internalType": "string",
          "name": "serviceType",
          "type": "string"
        },
        {
          "internalType": "string",
          "name": "endpoint",
          "type": "string"
        }
      ],
      "name": "addService",
      "outputs": [],
      "stateMutability": "nonpayable",
      "type": "function"
    },
    {
      "inputs": [
        {
          "internalType": "string",
          "name": "senderDid",
          "type": "string"
        },
        {
          "internalType": "string",
          "name": "senderAuthFragment",
          "type": "string"
        },
        {
          "internalType": "string",
          "name": "methodDidUrlFragment",
          "type": "string"
        },
        {
          "internalType": "enum VerificationMethodType",
          "name": "methodType",
          "type": "uint8"
        },
        {
          "internalType": "address",
          "name": "blockchainAccount",
          "type": "address"
        }
      ],
      "name": "updateVerificationMethod",
      "outputs": [],
      "stateMutability": "nonpayable",
      "type": "function"
    },
    {
      "inputs": [
        {
          "internalType": "string",
          "name": "senderDid",
          "type": "string"
        },
        {
          "internalType": "string",
          "name": "senderAuthFragment",
          "type": "string"
        },
        {
          "internalType": "string",
          "name": "serviceDidUrlFragment",
          "type": "string"
        },
        {
          "internalType": "string",
          "name": "serviceType",
          "type": "string"
        },
        {
          "internalType": "string",
          "name": "endpoint",
          "type": "string"
        }
      ],
      "name": "updateService",
      "outputs": [],
      "stateMutability": "nonpayable",
      "type": "function"
    },
    {
      "inputs": [
        {
          "internalType": "string",
          "name": "senderDid",
          "type": "string"
        },
        {
          "internalType": "string",
          "name": "senderAuthFragment",
          "type": "string"
        },
        {
          "internalType": "string",
          "name": "methodDidUrlFragment",
          "type": "string"
        },
        {
          "internalType": "enum VerificationMethodType",
          "name": "methodType",
          "type": "uint8"
        }
      ],
      "name": "removeVerificationMethod",
      "outputs": [],
      "stateMutability": "nonpayable",
      "type": "function"
    },
    {
      "inputs": [
        {
          "internalType": "string",
          "name": "senderDid",
          "type": "string"
        },
        {
          "internalType": "string",
          "name": "senderAuthFragment",
          "type": "string"
        },
        {
          "internalType": "string",
          "name": "serviceDidUrlFragment",
          "type": "string"
        }
      ],
      "name": "removeService",
      "outputs": [],
      "stateMutability": "nonpayable",
      "type": "function"
    },
    {
      "inputs": [
        {
          "internalType": "string",
          "name": "senderDid",
          "type": "string"
        },
        {
          "internalType": "string",
          "name": "senderAuthFragment",
          "type": "string"
        },
        {
          "internalType": "string",
          "name": "credentialStatusFragment",
          "type": "string"
        }
      ],
      "name": "revokeVerifiableCredential",
      "outputs": [],
      "stateMutability": "nonpayable",
      "type": "function"
    },
    {
      "inputs": [
        {
          "internalType": "string",
          "name": "senderDid",
          "type": "string"
        },
        {
          "internalType": "string",
          "name": "senderAuthFragment",
          "type": "string"
        }
      ],
      "name": "deactivate",
      "outputs": [],
      "stateMutability": "nonpayable",
      "type": "function"
    },
    {
      "inputs": [
        {
          "internalType": "string",
          "name": "did",
          "type": "string"
        }
      ],
      "name": "resolve",
      "outputs": [
        {
          "components": [
            {
              "internalType": "bool",
              "name": "deactivated",
              "type": "bool"
            },
            {
              "internalType": "uint256",
              "name": "createdTimestamp",
              "type": "uint256"
            },
            {
              "internalType": "uint256",
              "name": "updatedTimestamp",
              "type": "uint256"
            },
            {
              "components": [
                {
                  "internalType": "bool",
                  "name": "valid",
                  "type": "bool"
                },
                {
                  "internalType": "address",
                  "name": "blockchainAccount",
                  "type": "address"
                },
                {
                  "internalType": "enum VerificationMethodType",
                  "name": "methodType",
                  "type": "uint8"
                },
                {
                  "internalType": "uint256",
                  "name": "keyIndex",
                  "type": "uint256"
                },
                {
                  "internalType": "string",
                  "name": "didUrlFragment",
                  "type": "string"
                }
              ],
              "internalType": "struct VerificationMethod[]",
              "name": "verificationMethods",
              "type": "tuple[]"
            },
            {
              "components": [
                {
                  "internalType": "bool",
                  "name": "valid",
                  "type": "bool"
                },
                {
                  "internalType": "uint256",
                  "name": "keyIndex",
                  "type": "uint256"
                },
                {
                  "internalType": "string",
                  "name": "didUrlFragment",
                  "type": "string"
                },
                {
                  "internalType": "string",
                  "name": "serviceType",
                  "type": "string"
                },
                {
                  "internalType": "string",
                  "name": "endpoint",
                  "type": "string"
                }
              ],
              "internalType": "struct Service[]",
              "name": "services",
              "type": "tuple[]"
            },
            {
              "components": [
                {
                  "internalType": "bool",
                  "name": "valid",
                  "type": "bool"
                },
                {
                  "internalType": "uint64",
                  "name": "issuanceTimestamp",
                  "type": "uint64"
                },
                {
                  "internalType": "uint64",
                  "name": "expirationTimestamp",
                  "type": "uint64"
                },
                {
                  "internalType": "string",
                  "name": "issuer",
                  "type": "string"
                },
                {
                  "internalType": "string",
                  "name": "credentialStatusFragment",
                  "type": "string"
                },
                {
                  "components": [
                    {
                      "internalType": "bytes32",
                      "name": "jwsSignatureR",
                      "type": "bytes32"
                    },
                    {
                      "internalType": "bytes32",
                      "name": "jwsSignatureS",
                      "type": "bytes32"
                    },
                    {
                      "internalType": "uint8",
                      "name": "jwsSignatureV",
                      "type": "uint8"
                    },
                    {
                      "internalType": "uint64",
                      "name": "createdTimestamp",
                      "type": "uint64"
                    },
                    {
                      "internalType": "string",
                      "name": "issuerAssertionMethodFragment",
                      "type": "string"
                    }
                  ],
                  "internalType": "struct EcdsaSecp256k1Proof",
                  "name": "proof",
                  "type": "tuple"
                }
              ],
              "internalType": "struct TrustCertification",
              "name": "certification",
              "type": "tuple"
            },
            {
              "internalType": "enum TrustCertificationStatus",
              "name": "certificationStatus",
              "type": "uint8"
            }
          ],
          "internalType": "struct ResolvedDidDocument",
          "name": "",
          "type": "tuple"
        }
      ],
      "stateMutability": "view",
      "type": "function"
    },
    {
      "inputs": [
        {
          "internalType": "string",
          "name": "did",
          "type": "string"
        }
      ],
      "name": "resolveChain",
      "outputs": [
        {
          "components": [
            {
              "components": [
                {
                  "internalType": "bool",
                  "name": "valid",
                  "type": "bool"
                },
                {
                  "internalType": "uint64",
                  "name": "issuanceTimestamp",
                  "type": "uint64"
                },
                {
                  "internalType": "uint64",
                  "name": "expirationTimestamp",
                  "type": "uint64"
                },
                {
                  "internalType": "string",
                  "name": "issuer",
                  "type": "string"
                },
                {
                  "internalType": "string",
                  "name": "credentialStatusFragment",
                  "type": "string"
                },
                {
                  "components": [
                    {
                      "internalType": "bytes32",
                      "name": "jwsSignatureR",
                      "type": "bytes32"
                    },
                    {
                      "internalType": "bytes32",
                      "name": "jwsSignatureS",
                      "type": "bytes32"
                    },
                    {
                      "internalType": "uint8",
                      "name": "jwsSignatureV",
                      "type": "uint8"
                    },
                    {
                      "internalType": "uint64",
                      "name": "createdTimestamp",
                      "type": "uint64"
                    },
                    {
                      "internalType": "string",
                      "name": "issuerAssertionMethodFragment",
                      "type": "string"
                    }
                  ],
                  "internalType": "struct EcdsaSecp256k1Proof",
                  "name": "proof",
                  "type": "tuple"
                }
              ],
              "internalType": "struct TrustCertification[]",
              "name": "certifications",
              "type": "tuple[]"
            },
            {
              "internalType": "enum TrustCertificationStatus[]",
              "name": "statuses",
              "type": "uint8[]"
            }
          ],
          "internalType": "struct ResolvedTrustChain",
          "name": "",
          "type": "tuple"
        }
      ],
      "stateMutability": "view",
      "type": "function"
    },
    {
      "inputs": [
        {
          "internalType": "string",
          "name": "methodDid",
          "type": "string"
        },
        {
          "internalType": "string",
          "name": "methodDidUrlFragment",
          "type": "string"
        }
      ],
      "name": "resolveVerificationMethod",
      "outputs": [
        {
          "components": [
            {
              "internalType": "bool",
              "name": "valid",
              "type": "bool"
            },
            {
              "internalType": "address",
              "name": "blockchainAccount",
              "type": "address"
            },
            {
              "internalType": "enum VerificationMethodType",
              "name": "methodType",
              "type": "uint8"
            },
            {
              "internalType": "uint256",
              "name": "keyIndex",
              "type": "uint256"
            },
            {
              "internalType": "string",
              "name": "didUrlFragment",
              "type": "string"
            }
          ],
          "internalType": "struct VerificationMethod",
          "name": "",
          "type": "tuple"
        }
      ],
      "stateMutability": "view",
      "type": "function"
    },
    {
      "inputs": [
        {
          "internalType": "string",
          "name": "serviceDid",
          "type": "string"
        },
        {
          "internalType": "string",
          "name": "serviceFragment",
          "type": "string"
        }
      ],
      "name": "resolveService",
      "outputs": [
        {
          "components": [
            {
              "internalType": "bool",
              "name": "valid",
              "type": "bool"
            },
            {
              "internalType": "uint256",
              "name": "keyIndex",
              "type": "uint256"
            },
            {
              "internalType": "string",
              "name": "didUrlFragment",
              "type": "string"
            },
            {
              "internalType": "string",
              "name": "serviceType",
              "type": "string"
            },
            {
              "internalType": "string",
              "name": "endpoint",
              "type": "string"
            }
          ],
          "internalType": "struct Service",
          "name": "",
          "type": "tuple"
        }
      ],
      "stateMutability": "view",
      "type": "function"
    },
    {
      "inputs": [
        {
          "internalType": "string",
          "name": "credentialDid",
          "type": "string"
        },
        {
          "internalType": "string",
          "name": "credentialFragment",
          "type": "string"
        }
      ],
      "name": "resolveCredentialStatus",
      "outputs": [
        {
          "internalType": "bool",
          "name": "",
          "type": "bool"
        }
      ],
      "stateMutability": "view",
      "type": "function"
    },
    {
      "inputs": [],
      "name": "clear",
      "outputs": [],
      "stateMutability": "nonpayable",
      "type": "function"
    }
  ],
  "bytecode": "0x60a06040523480156200001157600080fd5b5060006200001f4662000088565b6040516020016200003191906200020e565b6040516020818303038152906040529050602081511115620000705760405162461bcd60e51b8152600401620000679062000243565b60405180910390fd5b6200007b816200027f565b60005551608052620003c5565b60606000826000036200009e57506001620000ce565b825b8015620000cc5781620000b381620002d3565b9250620000c49050600a8262000305565b9050620000a0565b505b6000816001600160401b03811115620000eb57620000eb6200031c565b6040519080825280601f01601f19166020018201604052801562000116576020820181803683370190505b5090506200012884826000856200012f565b9392505050565b8015620001bd5762000143600a8562000332565b6200015090603062000349565b60f81b83600162000162848662000369565b6200016e91906200037f565b8151811062000181576200018162000395565b60200101906001600160f81b031916908160001a90535080620001a481620003ab565b9150620001b59050600a8562000305565b93506200012f565b50505050565b60005b83811015620001e0578181015183820152602001620001c6565b50506000910152565b6000620001f4825190565b62000204818560208601620001c3565b9290920192915050565b6f3234b21d39b9b496b1b7ba16b2ba341d60811b8152601001620002338183620001e9565b601d60f91b815260010192915050565b602080825281016200026e81600c81526b29b1b432b6b09032b93937b960a11b602082015260400190565b92915050565b60006200026e825190565b60006200028a825190565b60208301620002998162000274565b9250506020811015620002b75760001960086020839003021b821691505b50919050565b634e487b7160e01b600052601160045260246000fd5b600060018201620002e857620002e8620002bd565b5060010190565b634e487b7160e01b600052601260045260246000fd5b600082620003175762000317620002ef565b500490565b634e487b7160e01b600052604160045260246000fd5b600082620003445762000344620002ef565b500690565b60ff9182169190811690828201908111156200026e576200026e620002bd565b808201808211156200026e576200026e620002bd565b818103818111156200026e576200026e620002bd565b634e487b7160e01b600052603260045260246000fd5b600081620003bd57620003bd620002bd565b506000190190565b608051615818620003f660003960008181612e5101528181612e8901528181612ec00152612f0501526158186000f3fe608060405234801561001057600080fd5b50600436106101005760003560e01c80636419ee5d11610097578063bc1258c211610066578063bc1258c21461022a578063de68fb911461023d578063df7d9c3614610250578063f273d60a1461026357600080fd5b80636419ee5d146101d15780637b129284146101e45780637f12e2f3146102045780638d6231bc1461021757600080fd5b8063461a4478116100d3578063461a4478146101765780634f5201fd1461019657806352efea6e146101b657806363ed4665146101be57600080fd5b80630c00938914610105578063188cc53d1461012e5780632f0b3016146101435780633da951b914610163575b600080fd5b610118610113366004613c6f565b610276565b6040516101259190613dc8565b60405180910390f35b61014161013c366004613ee1565b610505565b005b610156610151366004613c6f565b6106d9565b6040516101259190613fe7565b610141610171366004613c6f565b610758565b610189610184366004613ff5565b6107bb565b604051610125919061438d565b6101a96101a436600461439e565b6110ca565b60405161012591906144c6565b6101416116da565b6101416101cc36600461450e565b611c4b565b6101416101df3660046145dc565b611d2f565b6101f76101f2366004613c6f565b611fd6565b6040516101259190614695565b610141610212366004613ee1565b612289565b6101416102253660046146a6565b61232f565b61014161023836600461450e565b61252e565b61014161024b366004614750565b612745565b61014161025e366004613c6f565b61281b565b610141610271366004614812565b6128c1565b6102aa6040518060a00160405280600015158152602001600081526020016060815260200160608152602001606081525090565b6000600186866040516102be9291906148bc565b908152604051908190036020019020805490915060ff166102fb5760405163662b740f60e11b81526004016102f2906148ed565b60405180910390fd5b600081600a0185856040516103119291906148bc565b90815260408051918290036020908101832060a084018352805460ff1615158452600181015491840191909152600281018054919284019161035290614913565b80601f016020809104026020016040519081016040528092919081815260200182805461037e90614913565b80156103cb5780601f106103a0576101008083540402835291602001916103cb565b820191906000526020600020905b8154815290600101906020018083116103ae57829003601f168201915b505050505081526020016003820180546103e490614913565b80601f016020809104026020016040519081016040528092919081815260200182805461041090614913565b801561045d5780601f106104325761010080835404028352916020019161045d565b820191906000526020600020905b81548152906001019060200180831161044057829003601f168201915b5050505050815260200160048201805461047690614913565b80601f01602080910402602001604051908101604052809291908181526020018280546104a290614913565b80156104ef5780601f106104c4576101008083540402835291602001916104ef565b820191906000526020600020905b8154815290600101906020018083116104d257829003601f168201915b5050509190925250919998505050505050505050565b600061051389898989612bec565b9050610555818a8a8080601f016020809104026020016040519081016040528093929190818152602001838380828437600092019190915250612e0d92505050565b8060090185856040516105699291906148bc565b9081526040519081900360200190205460ff16806105aa575080600a0185856040516105969291906148bc565b9081526040519081900360200190205460ff165b156105c857604051639dd529bf60e01b81526004016102f29061496b565b6040518060a0016040528060011515815260200182600d0180549050815260200186868080601f01602080910402602001604051908101604052809392919081815260200183838082843760009201919091525050509082525060208101859052604090810184905251600a83019061064490889088906148bc565b90815260408051602092819003830190208351815460ff1916901515178155918301516001830155820151600282019061067e9082614a0f565b50606082015160038201906106939082614a0f565b50608082015160048201906106a89082614a0f565b505050600d8101805460018101825560009182526020909120016106cd858783614ace565b50505050505050505050565b60006106e58585612e4b565b61070257604051630263a5c760e01b81526004016102f290614bb9565b6000600186866040516107169291906148bc565b9081526020016040518091039020905080600b01848460405161073a9291906148bc565b9081526040519081900360200190205460ff16915050949350505050565b600061076685858585612bec565b90506107a88186868080601f016020809104026020016040519081016040528093929190818152602001838380828437600092019190915250612e0d92505050565b805461ff00191661010017905550505050565b6107c3613a96565b6000600184846040516107d79291906148bc565b9081526040519081900360200190208054909150606090600090819060ff16156109e55750508154600c8301546001600160401b03620100008304811692600160501b90048116919081111561082f5761082f613de0565b60405190808252806020026020018201604052801561086857816020015b610855613adb565b81526020019060019003908161084d5790505b50925060005b83518110156109df578460090185600c01828154811061089057610890614bc9565b906000526020600020016040516108a79190614c51565b90815260408051918290036020908101832060a084018352805460ff808216151586526001600160a01b03610100830416938601939093529092840191600160a81b9091041660018111156108fe576108fe614056565b600181111561090f5761090f614056565b81526020016001820154815260200160028201805461092d90614913565b80601f016020809104026020016040519081016040528092919081815260200182805461095990614913565b80156109a65780601f1061097b576101008083540402835291602001916109a6565b820191906000526020600020905b81548152906001019060200180831161098957829003601f168201915b5050505050815250508482815181106109c1576109c1614bc9565b602002602001018190525080806109d790614c71565b91505061086e565b50610a83565b5050604080516002808252606082019092524291829190816020015b610a09613adb565b815260200190600190039081610a01579050509250610a32610a2b8888612eff565b6000612ffe565b83600081518110610a4557610a45614bc9565b6020026020010181905250610a64610a5d8888612eff565b6001612ffe565b83600181518110610a7757610a77614bc9565b60200260200101819052505b600d8401546000906001600160401b03811115610aa257610aa2613de0565b604051908082528060200260200182016040528015610b0757816020015b610af46040518060a00160405280600015158152602001600081526020016060815260200160608152602001606081525090565b815260200190600190039081610ac05790505b50905060005b8151811015610d5d5785600a0186600d018281548110610b2f57610b2f614bc9565b90600052602060002001604051610b469190614c51565b90815260408051918290036020908101832060a084018352805460ff16151584526001810154918401919091526002810180549192840191610b8790614913565b80601f0160208091040260200160405190810160405280929190818152602001828054610bb390614913565b8015610c005780601f10610bd557610100808354040283529160200191610c00565b820191906000526020600020905b815481529060010190602001808311610be357829003601f168201915b50505050508152602001600382018054610c1990614913565b80601f0160208091040260200160405190810160405280929190818152602001828054610c4590614913565b8015610c925780601f10610c6757610100808354040283529160200191610c92565b820191906000526020600020905b815481529060010190602001808311610c7557829003601f168201915b50505050508152602001600482018054610cab90614913565b80601f0160208091040260200160405190810160405280929190818152602001828054610cd790614913565b8015610d245780601f10610cf957610100808354040283529160200191610d24565b820191906000526020600020905b815481529060010190602001808311610d0757829003601f168201915b505050505081525050828281518110610d3f57610d3f614bc9565b60200260200101819052508080610d5590614c71565b915050610b0d565b506040805160e081018252865460ff61010091829004811615158352602080840188905283850187905260608085018a905260808501879052855160c08101875260028c018054948516151582526001600160401b03958504861693820193909352600160481b90930490931694820194909452600389018054939460a0860194929390929084019190610df090614913565b80601f0160208091040260200160405190810160405280929190818152602001828054610e1c90614913565b8015610e695780601f10610e3e57610100808354040283529160200191610e69565b820191906000526020600020905b815481529060010190602001808311610e4c57829003601f168201915b50505050508152602001600282018054610e8290614913565b80601f0160208091040260200160405190810160405280929190818152602001828054610eae90614913565b8015610efb5780601f10610ed057610100808354040283529160200191610efb565b820191906000526020600020905b815481529060010190602001808311610ede57829003601f168201915b50505091835250506040805160a08101825260038401805482526004850154602080840191909152600586015460ff8116948401949094526101009093046001600160401b031660608301526006850180549390940193919290916080840191610f6490614913565b80601f0160208091040260200160405190810160405280929190818152602001828054610f9090614913565b8015610fdd5780601f10610fb257610100808354040283529160200191610fdd565b820191906000526020600020905b815481529060010190602001808311610fc057829003601f168201915b5050505050815250508152505081526020016110a987600201600201805461100490614913565b80601f016020809104026020016040519081016040528092919081815260200182805461103090614913565b801561107d5780601f106110525761010080835404028352916020019161107d565b820191906000526020600020905b81548152906001019060200180831161106057829003601f168201915b505060405160019350611096925060038d019150614c51565b90815260200160405180910390206130db565b60028111156110ba576110ba614056565b9052955050505050505b92915050565b604080518082018252606080825260208201528151600a8082526101608201909352909160009190816020015b6110ff613b0a565b8152602001906001900390816110f757505060408051600a8082526101608201909252919250600091906020820161014080368337019050509050600060018560405161114c9190614cac565b90815260408051918290036020908101832060c08401835260028101805460ff8116151586526001600160401b036101008204811694870194909452600160481b900490921692840192909252600390910180546060840191906111af90614913565b80601f01602080910402602001604051908101604052809291908181526020018280546111db90614913565b80156112285780601f106111fd57610100808354040283529160200191611228565b820191906000526020600020905b81548152906001019060200180831161120b57829003601f168201915b5050505050815260200160028201805461124190614913565b80601f016020809104026020016040519081016040528092919081815260200182805461126d90614913565b80156112ba5780601f1061128f576101008083540402835291602001916112ba565b820191906000526020600020905b81548152906001019060200180831161129d57829003601f168201915b50505091835250506040805160a08101825260038401805482526004850154602080840191909152600586015460ff8116948401949094526101009093046001600160401b03166060830152600685018054939094019391929091608084019161132390614913565b80601f016020809104026020016040519081016040528092919081815260200182805461134f90614913565b801561139c5780601f106113715761010080835404028352916020019161139c565b820191906000526020600020905b81548152906001019060200180831161137f57829003601f168201915b50505050508152505081525050905060005b815180156113bf5750600a8160ff16105b156116c0576000600183606001516040516113da9190614cac565b9081526020016040518091039020905082858360ff168151811061140057611400614bc9565b60200260200101819052506114198360800151826130db565b848360ff168151811061142e5761142e614bc9565b6020026020010190600281111561144757611447614056565b9081600281111561145a5761145a614056565b9052506040805160c08101825260028301805460ff8116151583526001600160401b03610100820481166020850152600160481b90910416928201929092526003830180549192916060840191906114b190614913565b80601f01602080910402602001604051908101604052809291908181526020018280546114dd90614913565b801561152a5780601f106114ff5761010080835404028352916020019161152a565b820191906000526020600020905b81548152906001019060200180831161150d57829003601f168201915b5050505050815260200160028201805461154390614913565b80601f016020809104026020016040519081016040528092919081815260200182805461156f90614913565b80156115bc5780601f10611591576101008083540402835291602001916115bc565b820191906000526020600020905b81548152906001019060200180831161159f57829003601f168201915b50505091835250506040805160a08101825260038401805482526004850154602080840191909152600586015460ff8116948401949094526101009093046001600160401b03166060830152600685018054939094019391929091608084019161162590614913565b80601f016020809104026020016040519081016040528092919081815260200182805461165190614913565b801561169e5780601f106116735761010080835404028352916020019161169e565b820191906000526020600020905b81548152906001019060200180831161168157829003601f168201915b505050919092525050509052509250816116b781614cb6565b925050506113ae565b505060408051808201909152918252602082015292915050565b6002545b8015611c48576000600160026116f48285614ccc565b8154811061170457611704614bc9565b9060005260206000200160405161171b9190614c51565b908152604051908190036020019020600c8101549091505b801561187a576000600c830161174a600184614ccc565b8154811061175a5761175a614bc9565b90600052602060002001805461176f90614913565b80601f016020809104026020016040519081016040528092919081815260200182805461179b90614913565b80156117e85780601f106117bd576101008083540402835291602001916117e8565b820191906000526020600020905b8154815290600101906020018083116117cb57829003601f168201915b5050505050905082600901816040516118019190614cac565b90815260405190819003602001902080546001600160b01b03191681556000600182018190556118346002830182613b90565b505082600c0180548061184957611849614cdf565b6001900381819060005260206000200160006118659190613b90565b90558161187181614cf5565b92505050611733565b600d8201545b80156119dd576000600d8401611897600184614ccc565b815481106118a7576118a7614bc9565b9060005260206000200180546118bc90614913565b80601f01602080910402602001604051908101604052809291908181526020018280546118e890614913565b80156119355780601f1061190a57610100808354040283529160200191611935565b820191906000526020600020905b81548152906001019060200180831161191857829003601f168201915b5050505050905083600a018160405161194e9190614cac565b908152604051908190036020019020805460ff1916815560006001820181905561197b6002830182613b90565b611989600383016000613b90565b611997600483016000613b90565b505083600d018054806119ac576119ac614cdf565b6001900381819060005260206000200160006119c89190613b90565b9055816119d481614cf5565b92505050611880565b600e8301545b8015611b0c576000600e85016119fa600184614ccc565b81548110611a0a57611a0a614bc9565b906000526020600020018054611a1f90614913565b80601f0160208091040260200160405190810160405280929190818152602001828054611a4b90614913565b8015611a985780601f10611a6d57610100808354040283529160200191611a98565b820191906000526020600020905b815481529060010190602001808311611a7b57829003601f168201915b5050505050905084600b0181604051611ab19190614cac565b908152604051908190036020019020805460ff19169055600e8501805480611adb57611adb614cdf565b600190038181906000526020600020016000611af79190613b90565b905581611b0381614cf5565b925050506119e3565b60016002611b1a8288614ccc565b81548110611b2a57611b2a614bc9565b90600052602060002001604051611b419190614c51565b908152604051908190036020019020805471ffffffffffffffffffffffffffffffffffff191681556000600182018190556002820180546001600160881b031916815581611b926003850182613b90565b611ba0600283016000613b90565b6000600383018181556004840182905560058401805468ffffffffffffffffff1916905590611bd26006850182613b90565b50611be592505050600c83016000613bca565b611bf3600d83016000613bca565b611c01600e83016000613bca565b50506002805480611c1457611c14614cdf565b600190038181906000526020600020016000611c309190613b90565b905584611c3c81614cf5565b955050505050506116de565b50565b6000611c5988888888612bec565b905060008160090185604051611c6f9190614cac565b908152604051908190036020019020805490915060ff161580611cbf5750836001811115611c9f57611c9f614056565b8154600160a81b900460ff166001811115611cbc57611cbc614056565b14155b15611cdd5760405163662b740f60e11b81526004016102f290614d3e565b80546001600160a01b0390931661010002610100600160a81b03199093169290921790915580546001600160401b034216600160501b0267ffffffffffffffff60501b19909116179055505050505050565b6000611d3d87878787612bec565b905060008160090184604051611d539190614cac565b908152604051908190036020019020805490915060ff161580611da35750826001811115611d8357611d83614056565b8154600160a81b900460ff166001811115611da057611da0614056565b14155b15611dc15760405163662b740f60e11b81526004016102f290614d3e565b6000836001811115611dd557611dd5614056565b03611e17578160010154600103611dff576040516334dc808d60e01b81526004016102f290614d80565b600182018054906000611e1183614cf5565b91905055505b600180820154600c840180549192600092611e329190614ccc565b81548110611e4257611e42614bc9565b906000526020600020018054611e5790614913565b80601f0160208091040260200160405190810160405280929190818152602001828054611e8390614913565b8015611ed05780601f10611ea557610100808354040283529160200191611ed0565b820191906000526020600020905b815481529060010190602001808311611eb357829003601f168201915b505050505090508084600c018381548110611eed57611eed614bc9565b906000526020600020019081611f039190614a0f565b5083600c01805480611f1757611f17614cdf565b600190038181906000526020600020016000611f339190613b90565b905560008460090182604051611f499190614cac565b9081526040519081900360200181206001810185905591506009860190611f71908990614cac565b90815260405190819003602001902080546001600160b01b0319168155600060018201819055611fa46002830182613b90565b5050845467ffffffffffffffff60501b1916600160501b426001600160401b0316021790945550505050505050505050565b611fde613adb565b611fe6613adb565b600060018787604051611ffa9291906148bc565b908152604051908190036020019020805490915060ff16156121395780600901858560405161202a9291906148bc565b90815260408051918290036020908101832060a084018352805460ff808216151586526001600160a01b03610100830416938601939093529092840191600160a81b90910416600181111561208157612081614056565b600181111561209257612092614056565b8152602001600182015481526020016002820180546120b090614913565b80601f01602080910402602001604051908101604052809291908181526020018280546120dc90614913565b80156121295780601f106120fe57610100808354040283529160200191612129565b820191906000526020600020905b81548152906001019060200180831161210c57829003601f168201915b505050505081525050915061227f565b6121438787612e4b565b61216057604051630263a5c760e01b81526004016102f290614dd0565b600085858080601f01602080910402602001604051908101604052809392919081815260200183838082843760009201829052509394506121a69250849150614df49050565b6001600160b01b03191669617574682d6b65792d3160b01b1490508151600a1480156121cf5750805b8061220657508151600c14801561220657506121ea82614e47565b6001600160a01b0319166b6173736572742d6b65792d3160a01b145b1561223f5760006122178a8a612eff565b905060008261222757600161222a565b60005b90506122368282612ffe565b9550505061227c565b6040805160a08101825260008082526020820181905290918201908152602001600081526020016040518060200160405280600081525081525093505b50505b5095945050505050565b600061229789898989612bec565b9050600081600a0186866040516122af9291906148bc565b908152604051908190036020019020805490915060ff166122e35760405163662b740f60e11b81526004016102f2906148ed565b600381016122f18582614a0f565b50600481016123008482614a0f565b5050805467ffffffffffffffff60501b1916600160501b426001600160401b0316021790555050505050505050565b600061233d87878787612bec565b9050600081600a0184846040516123559291906148bc565b908152604051908190036020019020805490915060ff166123895760405163662b740f60e11b81526004016102f2906148ed565b600180820154600d8401805491926000926123a49190614ccc565b815481106123b4576123b4614bc9565b9060005260206000200180546123c990614913565b80601f01602080910402602001604051908101604052809291908181526020018280546123f590614913565b80156124425780601f1061241757610100808354040283529160200191612442565b820191906000526020600020905b81548152906001019060200180831161242557829003601f168201915b505050505090508084600d01838154811061245f5761245f614bc9565b9060005260206000200190816124759190614a0f565b5083600d0180548061248957612489614cdf565b6001900381819060005260206000200160006124a59190613b90565b9055600084600a01826040516124bb9190614cac565b908152604051908190036020018120600181018590559150600a8601906124e590899089906148bc565b908152604051908190036020019020805460ff191681556000600182018190556125126002830182613b90565b612520600383016000613b90565b611fa4600483016000613b90565b600061253c88888888612bec565b905061257e8189898080601f016020809104026020016040519081016040528093929190818152602001838380828437600092019190915250612e0d92505050565b80600901846040516125909190614cac565b9081526040519081900360200190205460ff16806125cf575080600a01846040516125bb9190614cac565b9081526040519081900360200190205460ff165b156125ed57604051639dd529bf60e01b81526004016102f29061496b565b60006040518060a00160405280600115158152602001846001600160a01b0316815260200185600181111561262457612624614056565b815260200183600c0180549050815260200186815250905080826009018660405161264f9190614cac565b908152604080516020928190038301902083518154938501516001600160a81b0319909416901515610100600160a81b031916176101006001600160a01b0390941693909302929092178083559083015190829060ff60a81b1916600160a81b8360018111156126c1576126c1614056565b021790555060608201516001820155608082015160028201906126e49082614a0f565b505050600c8201805460018101825560009182526020909120016127088682614a0f565b50600084600181111561271d5761271d614056565b0361273a5760018201805490600061273483614c71565b91905055505b505050505050505050565b600061275386868686612bec565b90506127958187878080601f016020809104026020016040519081016040528093929190818152602001838380828437600092019190915250612e0d92505050565b80600b01826040516127a79190614cac565b9081526040519081900360200190205460ff1661281357600181600b01836040516127d29190614cac565b90815260405160209181900382019020805460ff191692151592909217909155600e820180546001810182556000918252919020016128118382614a0f565b505b505050505050565b600061282985858585612bec565b805490915060ff16156128ba57805467ffffffffffffffff60501b1916600160501b426001600160401b0316021781556002810180546001600160881b0319168155600061287a6003840182613b90565b612888600283016000613b90565b6000600383018181556004840182905560058401805468ffffffffffffffffff191690559061273a6006850182613b90565b5050505050565b6128ca81613130565b60006128d886868686612bec565b905060006129046128e98480614e81565b6128f66080870187614ed5565b6101f2906080810190614e81565b8051909150158061292b575060018160400151600181111561292857612928614056565b14155b1561294957604051630263a5c760e01b81526004016102f290614f35565b6040805160c081018252600181526001600160401b03602086810135821690830152858301351691810191909152600090606081016129888680614e81565b8080601f0160208091040260200160405190810160405280939291908181526020018383808284376000920191909152505050908252506020016129cf6060870187614e81565b8080601f016020809104026020016040519081016040528093929190818152602001838380828437600092019190915250505090825250602001612a166080870187614ed5565b612a1f9061501f565b81525090506000612a6789898080601f016020809104026020016040519081016040528093929190818152602001838380828437600092019190915250869250613227915050565b905082602001516001600160a01b0316816001600160a01b031614612a9f5760405163c6be21f760e01b81526004016102f290615051565b612adf848a8a8080601f016020809104026020016040519081016040528093929190818152602001838380828437600092019190915250612e0d92505050565b81516002850180546020850151604086015168ffffffffffffffffff1990921693151568ffffffffffffffff001916939093176101006001600160401b03948516021770ffffffffffffffff0000000000000000001916600160481b939091169290920291909117815560608301518391906003870190612b609082614a0f565b5060808201516002820190612b759082614a0f565b5060a082015180516003830190815560208201516004840155604082015160058401805460608501516001600160401b03166101000268ffffffffffffffffff1990911660ff9093169290921791909117905560808201516006840190612bdc9082614a0f565b5050505050505050505050505050565b6000612bf88585612e4b565b612c1557604051630263a5c760e01b81526004016102f290615093565b600060018686604051612c299291906148bc565b908152604051908190036020019020805490915060ff6101009091041615612c6457604051637bb96abd60e01b81526004016102f2906150c7565b805460009060ff1615612dd7576000826009018686604051612c879291906148bc565b90815260408051918290036020908101832060a084018352805460ff808216151586526001600160a01b03610100830416938601939093529092840191600160a81b909104166001811115612cde57612cde614056565b6001811115612cef57612cef614056565b815260200160018201548152602001600282018054612d0d90614913565b80601f0160208091040260200160405190810160405280929190818152602001828054612d3990614913565b8015612d865780601f10612d5b57610100808354040283529160200191612d86565b820191906000526020600020905b815481529060010190602001808311612d6957829003601f168201915b505050505081525050905080600001518015612db75750600081604001516001811115612db557612db5614056565b145b8015612dcf575060208101516001600160a01b031633145b915050612def565b33612de28888612eff565b6001600160a01b03161490505b8061227f57604051630398aaeb60e11b81526004016102f290615100565b815460ff16612e2457612e20828261335b565b5050565b815467ffffffffffffffff60501b1916600160501b426001600160401b0316021782555050565b600082827f0000000000000000000000000000000000000000000000000000000000000000811015612e82576000925050506110c4565b6000612eb07f0000000000000000000000000000000000000000000000000000000000000000828486615110565b612eb991615140565b9050612ee67f00000000000000000000000000000000000000000000000000000000000000006028615164565b82148015612ef5575060005481145b9695505050505050565b600080837f000000000000000000000000000000000000000000000000000000000000000084612f30826028615164565b92612f3d93929190615110565b8080601f016020809104026020016040519081016040528093929190818152602001838380828437600092018290525093945083925050505b6028811015612ff5576008826001600160a01b0316901b9150612fc483826001612fa09190615164565b81518110612fb057612fb0614bc9565b01602001516001600160f81b0319166135fc565b6004612fdb858481518110612fb057612fb0614bc9565b901b179190911790612fee600282615164565b9050612f76565b50949350505050565b613006613adb565b6040518060a00160405280600115158152602001846001600160a01b0316815260200183600181111561303b5761303b614056565b8152602001600084600181111561305457613054614056565b14613060576001613063565b60005b60ff168152602001600084600181111561307f5761307f614056565b146130ae576040518060400160405280600c81526020016b6173736572742d6b65792d3160a01b8152506130d2565b6040518060400160405280600a815260200169617574682d6b65792d3160b01b8152505b90529392505050565b8054600090610100900460ff16156130f5575060016110c4565b81600b01836040516131079190614cac565b9081526040519081900360200190205460ff1615613127575060026110c4565b50600092915050565b36600061313d8380614e81565b9150915061314b8282612e4b565b61316857604051631da3607160e11b81526004016102f2906151a9565b428360200135111561318d5760405163cafc520360e01b81526004016102f2906151e9565b42836040013510156131b25760405163b281dfab60e01b81526004016102f29061522b565b600182826040516131c49291906148bc565b908152604051908190036020019020600b016131e36060850185614e81565b6040516131f19291906148bc565b9081526040519081900360200190205460ff161561322257604051634dba377360e01b81526004016102f290615262565b505050565b60008082606001518360800151846060015185608001518761325588604001516001600160401b031661367e565b61326b89602001516001600160401b031661367e565b896060015160405160200161328798979695949392919061537d565b604051602081830303815290604052905060006002826040516132aa9190614cac565b602060405180830381855afa1580156132c7573d6000803e3d6000fd5b5050506040513d601f19601f820116820180604052508101906132ea91906156a7565b905060008460a0015190506001828260400151836000015184602001516040516000815260200160405260405161332494939291906156c8565b6020604051602081039080840390855afa158015613346573d6000803e3d6000fd5b5050604051601f190151979650505050505050565b6000613368336000612ffe565b90506000613377336001612ffe565b8454600160501b6001600160401b03421690810267ffffffffffffffff60501b19620100009290920269ffffffffffffffffffff199093169290921760011716178555604051909150829060098601906133e19069617574682d6b65792d3160b01b8152600a0190565b908152604080516020928190038301902083518154938501516001600160a81b0319909416901515610100600160a81b031916176101006001600160a01b0390941693909302929092178083559083015190829060ff60a81b1916600160a81b83600181111561345357613453614056565b021790555060608201516001820155608082015160028201906134769082614a0f565b5050604080516b6173736572742d6b65792d3160a01b815260098701600c8201528151602c918190039190910190208351815460208601516001600160a01b031661010002610100600160a81b0319921515929092166001600160a81b03199091161717808255918401518493509091829060ff60a81b1916600160a81b83600181111561350657613506614056565b021790555060608201516001820155608082015160028201906135299082614a0f565b505050600c84018054600181018255600091825260209182902060408051808201909152600a815269617574682d6b65792d3160b01b9381019390935201906135729082614a0f565b50600c80850180546001810182556000918252602091829020604080518082019091529384526b6173736572742d6b65792d3160a01b9284019290925201906135bb9082614a0f565b5060018481018190556002805491820181556000527f405787fa12a823e0f2b7631cc41b3ba8828b3321ca811111fa75cd3aa3bb5ace016128ba8482614a0f565b600060f882901c60308110801590613618575060398160ff1611155b15613632576136286030826156fd565b60ff169392505050565b60618160ff161015801561364a575060668160ff1611155b156136655761365a6061826156fd565b61362890600a61571a565b60405163af6197c960e01b81526004016102f29061575d565b6060600080600061368e85613865565b6040805160148082528183019092529396509194509250600091906020820181803683370190505090506136c6848260006004613a13565b602d60f81b816004815181106136de576136de614bc9565b60200101906001600160f81b031916908160001a905350613703838260056002613a13565b602d60f81b8160078151811061371b5761371b614bc9565b60200101906001600160f81b031916908160001a905350613740828260086002613a13565b601560fa1b81600a8151811061375857613758614bc9565b60200101906001600160f81b031916908160001a9053506137946018613780610e1089615783565b61378a9190615797565b82600b6002613a13565b601d60f91b81600d815181106137ac576137ac614bc9565b60200101906001600160f81b031916908160001a9053506137e6603c6137d28189615783565b6137dc9190615797565b82600e6002613a13565b601d60f91b816010815181106137fe576137fe614bc9565b60200101906001600160f81b031916908160001a90535061382d613823603c88615797565b8260116002613a13565b602d60f91b8160138151811061384557613845614bc9565b60200101906001600160f81b031916908160001a90535095945050505050565b60008080806138776201518086615783565b61388490620afa6c615164565b9050600061389562023ab183615783565b905060006138a68262023ab16157ab565b6138b09084614ccc565b9050600061016d6138c462023ab084615783565b6138d0618eac85615783565b6138dc6105b486615783565b6138e69086614ccc565b6138f09190615164565b6138fa9190614ccc565b6139049190615783565b90506000613913606483615783565b61391e600484615783565b61392a8461016d6157ab565b6139349190615164565b61393e9190614ccc565b6139489084614ccc565b9050600060996139598360056157ab565b613964906002615164565b61396e9190615783565b9050600561397d8260996157ab565b613988906002615164565b6139929190615783565b61399c9083614ccc565b6139a7906001615164565b9650600a81106139c1576139bc600982614ccc565b6139cc565b6139cc816003615164565b975060028811156139de5760006139e1565b60015b60ff166139f0866101906157ab565b6139fa9085615164565b613a049190615164565b98505050505050509193909250565b8015613a9057613a24600a85615797565b613a2f90603061571a565b60f81b836001613a3f8486615164565b613a499190614ccc565b81518110613a5957613a59614bc9565b60200101906001600160f81b031916908160001a90535080613a7a81614cf5565b9150613a899050600a85615783565b9350613a13565b50505050565b6040518060e0016040528060001515815260200160008152602001600081526020016060815260200160608152602001613ace613b0a565b815260200160005b905290565b6040805160a0810182526000808252602082018190529091820190815260200160008152602001606081525090565b6040518060c0016040528060001515815260200160006001600160401b0316815260200160006001600160401b031681526020016060815260200160608152602001613ad66040518060a001604052806000801916815260200160008019168152602001600060ff16815260200160006001600160401b03168152602001606081525090565b508054613b9c90614913565b6000825580601f10613bac575050565b601f016020900490600052602060002090810190611c489190613be8565b5080546000825590600052602060002090810190611c489190613c01565b5b80821115613bfd5760008155600101613be9565b5090565b80821115613bfd576000613c158282613b90565b50600101613c01565b60008083601f840112613c3357613c33600080fd5b5081356001600160401b03811115613c4d57613c4d600080fd5b602083019150836001820283011115613c6857613c68600080fd5b9250929050565b60008060008060408587031215613c8857613c88600080fd5b84356001600160401b03811115613ca157613ca1600080fd5b613cad87828801613c1e565b945094505060208501356001600160401b03811115613cce57613cce600080fd5b613cda87828801613c1e565b95989497509550505050565b8015155b82525050565b80613cea565b60005b83811015613d11578181015183820152602001613cf9565b50506000910152565b6000613d24825190565b808452602084019350613d3b818560208601613cf6565b601f01601f19169290920192915050565b805160009060a0840190613d608582613ce6565b506020830151613d736020860182613cf0565b5060408301518482036040860152613d8b8282613d1a565b91505060608301518482036060860152613da58282613d1a565b91505060808301518482036080860152613dbf8282613d1a565b95945050505050565b60208082528101613dd98184613d4c565b9392505050565b634e487b7160e01b600052604160045260246000fd5b601f19601f83011681018181106001600160401b0382111715613e1b57613e1b613de0565b6040525050565b6000613e2d60405190565b9050613e398282613df6565b919050565b60006001600160401b03821115613e5757613e57613de0565b601f19601f83011660200192915050565b82818337506000910152565b6000613e87613e8284613e3e565b613e22565b905082815260208101848484011115613ea257613ea2600080fd5b613ead848285613e68565b509392505050565b600082601f830112613ec957613ec9600080fd5b8135613ed9848260208601613e74565b949350505050565b60008060008060008060008060a0898b031215613f0057613f00600080fd5b88356001600160401b03811115613f1957613f19600080fd5b613f258b828c01613c1e565b985098505060208901356001600160401b03811115613f4657613f46600080fd5b613f528b828c01613c1e565b965096505060408901356001600160401b03811115613f7357613f73600080fd5b613f7f8b828c01613c1e565b945094505060608901356001600160401b03811115613fa057613fa0600080fd5b613fac8b828c01613eb5565b92505060808901356001600160401b03811115613fcb57613fcb600080fd5b613fd78b828c01613eb5565b9150509295985092959890939650565b602081016110c48284613ce6565b6000806020838503121561400b5761400b600080fd5b82356001600160401b0381111561402457614024600080fd5b61403085828601613c1e565b92509250509250929050565b60006001600160a01b0382166110c4565b613cea8161403c565b634e487b7160e01b600052602160045260246000fd5b60028110611c4857611c48614056565b80613e398161406c565b60006110c48261407c565b613cea81614086565b805160009060a08401906140ae8582613ce6565b5060208301516140c1602086018261404d565b5060408301516140d46040860182614091565b5060608301516140e76060860182613cf0565b5060808301518482036080860152613dbf8282613d1a565b6000613dd9838361409a565b60200190565b600061411b825190565b808452602084019350836020820285016141358560200190565b60005b84811015614169578383038852815161415184826140ff565b93505060208201602098909801979150600101614138565b50909695505050505050565b6000613dd98383613d4c565b600061418b825190565b808452602084019350836020820285016141a58560200190565b60005b8481101561416957838303885281516141c18482614175565b935050602082016020989098019791506001016141a8565b6001600160401b038116613cea565b60ff8116613cea565b805160009060a08401906142058582613cf0565b5060208301516142186020860182613cf0565b50604083015161422b60408601826141e8565b5060608301516140e760608601826141d9565b805160009060c08401906142528582613ce6565b50602083015161426560208601826141d9565b50604083015161427860408601826141d9565b50606083015184820360608601526142908282613d1a565b915050608083015184820360808601526142aa8282613d1a565b91505060a083015184820360a0860152613dbf82826141f1565b60038110611c4857611c48614056565b80613e39816142c4565b60006110c4826142d4565b613cea816142de565b805160009060e08401906143068582613ce6565b5060208301516143196020860182613cf0565b50604083015161432c6040860182613cf0565b50606083015184820360608601526143448282614111565b9150506080830151848203608086015261435e8282614181565b91505060a083015184820360a0860152614378828261423e565b91505060c0830151613ead60c08601826142e9565b60208082528101613dd981846142f2565b6000602082840312156143b3576143b3600080fd5b81356001600160401b038111156143cc576143cc600080fd5b613ed984828501613eb5565b6000613dd9838361423e565b60006143ee825190565b808452602084019350836020820285016144088560200190565b60005b84811015614169578383038852815161442484826143d8565b9350506020820160209890980197915060010161440b565b61444682826142e9565b5060200190565b6000614457825190565b808452602093840193830160005b8281101561448a578151614479878261443c565b965050602082019150600101614465565b5093949350505050565b80516040808452600091908401906144ac82826143e4565b91505060208301518482036020860152613dbf828261444d565b60208082528101613dd98184614494565b60028110611c4857600080fd5b80356110c4816144d7565b6144f88161403c565b8114611c4857600080fd5b80356110c4816144ef565b600080600080600080600060a0888a03121561452c5761452c600080fd5b87356001600160401b0381111561454557614545600080fd5b6145518a828b01613c1e565b975097505060208801356001600160401b0381111561457257614572600080fd5b61457e8a828b01613c1e565b955095505060408801356001600160401b0381111561459f5761459f600080fd5b6145ab8a828b01613eb5565b93505060606145bc8a828b016144e4565b92505060806145cd8a828b01614503565b91505092959891949750929550565b600080600080600080608087890312156145f8576145f8600080fd5b86356001600160401b0381111561461157614611600080fd5b61461d89828a01613c1e565b965096505060208701356001600160401b0381111561463e5761463e600080fd5b61464a89828a01613c1e565b945094505060408701356001600160401b0381111561466b5761466b600080fd5b61467789828a01613eb5565b925050606061468889828a016144e4565b9150509295509295509295565b60208082528101613dd9818461409a565b600080600080600080606087890312156146c2576146c2600080fd5b86356001600160401b038111156146db576146db600080fd5b6146e789828a01613c1e565b965096505060208701356001600160401b0381111561470857614708600080fd5b61471489828a01613c1e565b945094505060408701356001600160401b0381111561473557614735600080fd5b61474189828a01613c1e565b92509250509295509295509295565b60008060008060006060868803121561476b5761476b600080fd5b85356001600160401b0381111561478457614784600080fd5b61479088828901613c1e565b955095505060208601356001600160401b038111156147b1576147b1600080fd5b6147bd88828901613c1e565b935093505060408601356001600160401b038111156147de576147de600080fd5b6147ea88828901613eb5565b9150509295509295909350565b600060a0828403121561480c5761480c600080fd5b50919050565b60008060008060006060868803121561482d5761482d600080fd5b85356001600160401b0381111561484657614846600080fd5b61485288828901613c1e565b955095505060208601356001600160401b0381111561487357614873600080fd5b61487f88828901613c1e565b935093505060408601356001600160401b038111156148a0576148a0600080fd5b6147ea888289016147f7565b6148b7828483613e68565b500190565b613dd98183856148ac565b60118152602081017014d95c9d9a58d9481b9bdd08199bdd5b99607a1b8152905061410b565b602080825281016110c4816148c7565b634e487b7160e01b600052602260045260246000fd5b60028104600182168061492757607f821691505b60208210810361480c5761480c6148fd565b60178152602081017f4449442055524c20616c72656164792070726573656e740000000000000000008152905061410b565b602080825281016110c481614939565b60006110c46149878381565b90565b6149938361497b565b815460001960089490940293841b1916921b91909117905550565b600061322281848461498a565b81811015612e20576149ce6000826149ae565b6001016149bb565b601f821115613222576000818152602090206020601f850104810160208510156149fd5750805b6128ba6020601f8601048301826149bb565b81516001600160401b03811115614a2857614a28613de0565b614a328254614913565b614a3d8282856149d6565b506020601f821160018114614a725760008315614a5a5750848201515b600019600885021c19811660028502178555506128ba565b600084815260208120601f198516915b82811015614aa25787850151825560209485019460019092019101614a82565b5084821015614abf5783870151600019601f87166008021c191681555b50505050600202600101905550565b826001600160401b03811115614ae657614ae6613de0565b614af08254614913565b614afb8282856149d6565b506000601f821160018114614b305760008315614b185750848201355b600019600885021c1981166002850217855550612813565b600084815260209020601f19841690835b82811015614b615787850135825560209485019460019092019101614b41565b5084821015614b7e57600019601f86166008021c19848801351681555b5050505060020260010190555050565b601681526020810175125b9d985b1a590818dc9959195b9d1a585b0811125160521b8152905061410b565b602080825281016110c481614b8e565b634e487b7160e01b600052603260045260246000fd5b60008154614bec81614913565b600182168015614c035760018114614c1857614c48565b60ff1983168652811515820286019350614c48565b60008581526020902060005b83811015614c4057815488820152600190910190602001614c24565b505081860193505b50505092915050565b6110c48183614bdf565b634e487b7160e01b600052601160045260246000fd5b600060018201614c8357614c83614c5b565b5060010190565b6000614c94825190565b614ca2818560208601613cf6565b9290920192915050565b6110c48183614c8a565b60ff16600060fe198201614c8357614c83614c5b565b818103818111156110c4576110c4614c5b565b634e487b7160e01b600052603160045260246000fd5b600081614d0457614d04614c5b565b506000190190565b601d8152602081017f566572696669636174696f6e206d6574686f64206e6f7420666f756e640000008152905061410b565b602080825281016110c481614d0c565b601a8152602081017f4c6173742061757468656e7469636174696f6e206d6574686f640000000000008152905061410b565b602080825281016110c481614d4e565b60238152602081017f496e76616c6964204449442055524c20766572696669636174696f6e206d65748152621a1bd960ea1b602082015290505b60400190565b602080825281016110c481614d90565b60006110c482516001600160b01b03191690565b6000614dfe825190565b60208301614e0b81614de0565b925050600a81101561480c576001600160b01b0319600a8290036008021b5b90911692915050565b60006110c482516001600160a01b03191690565b6000614e51825190565b60208301614e5e81614e33565b925050600c81101561480c576001600160a01b0319600c8290036008021b614e2a565b6000808335601e1936859003018112614e9c57614e9c600080fd5b830191505080356001600160401b03811115614eba57614eba600080fd5b602082019150600181023603821315613c6857613c68600080fd5b60008235609e1936849003018112614eef57614eef600080fd5b9190910192915050565b60218152602081017f496e76616c69642070726f6f6620766572696669636174696f6e206d6574686f8152601960fa1b60208201529050614dca565b602080825281016110c481614ef9565b806144f8565b80356110c481614f45565b60ff81166144f8565b80356110c481614f56565b6001600160401b0381166144f8565b80356110c481614f6a565b600060a08284031215614f9957614f99600080fd5b614fa360a0613e22565b90506000614fb18484614f4b565b908201526020614fc384848301614f4b565b908201526040614fd584848301614f5f565b908201526060614fe784848301614f79565b9082015260808201356001600160401b0381111561500757615007600080fd5b61501384828501613eb5565b60808301525092915050565b60006110c43683614f84565b601181526020810170496e76616c6964207369676e617475726560781b8152905061410b565b602080825281016110c48161502b565b601c8152602081017f41757468656e7469636174696f6e20444944206e6f742076616c6964000000008152905061410b565b602080825281016110c481615061565b600f8152602081016e1112510819195858dd1a5d985d1959608a1b8152905061410b565b602080825281016110c4816150a3565b60148152602081017320baba3432b73a34b1b0ba34b7b71032b93937b960611b8152905061410b565b602080825281016110c4816150d7565b6000808585111561512357615123600080fd5b8386111561513357615133600080fd5b5050820193919092039150565b803582602081101561515d5760001960086020839003021b821691505b5092915050565b808201808211156110c4576110c4614c5b565b601d8152602081017f496e76616c69642063726564656e7469616c20697373756572204449440000008152905061410b565b602080825281016110c481615177565b60208082527f496e76616c69642063726564656e7469616c2069737375616e63652064617465910190815261410b565b602080825281016110c4816151b9565b60198152602081017f5468652063726564656e7469616c2069732065787069726564000000000000008152905061410b565b602080825281016110c4816151f9565b60128152602081017114995d9bdad9590818dc9959195b9d1a585b60721b8152905061410b565b602080825281016110c48161523b565b7f65794a68624763694f694a46557a49314e6b737455694973496d49324e43493681527f5a6d467363325573496d4e79615851694f6c7369596a5930496c31392e3c000060208201525b603e0190565b6000805160206157c383398151915281527f2f63726564656e7469616c732363726564656e7469616c5374617475733e203c6020820152614dca565b6000805160206157c383398151915281527f2f63726564656e7469616c732365787069726174696f6e446174653e2022000060208201526152bc565b7f225e5e3c687474703a2f2f7777772e77332e6f72672f323030312f584d4c53638152703432b6b091b230ba32aa34b6b29f10170560791b602082015260310190565b61538681615272565b9050615392818a614c8a565b602360f81b815290506001016153a88189614c8a565b7f3e203c687474703a2f2f7777772e77332e6f72672f313939392f30322f32322d81527f7264662d73796e7461782d6e7323747970653e203c68747470733a2f2f77777760208201527f2e737369636f742e636f6d2f5265766f636174696f6e4c697374323032332f236040820152631f10170560e11b60608201527f5f3a6331346e30203c687474703a2f2f7777772e77332e6f72672f313939392f606482018190527f30322f32322d7264662d73796e7461782d6e7323747970653e203c6874747073608483018190527f3a2f2f7777772e737369636f742e636f6d2f63657274696669636174696f6e2d60a48401527f63726564656e7469616c2f2343657274696669636174696f6e43726564656e7460c48401526634b0b61f10170560c91b60e484015260eb83019190915261010b8201527f3a2f2f7777772e77332e6f72672f323031382f63726564656e7469616c73235661012b8201527f657269666961626c6543726564656e7469616c3e202e0a00000000000000000061014b82015261016201905061553b816152c2565b90506155478188614c8a565b602360f81b8152905060010161555d8187614c8a565b631f10170560e11b815290506004016155b7816000805160206157c383398151915281527f2f63726564656e7469616c732363726564656e7469616c5375626a6563743e206020820152600f60fa1b604082015260410190565b90506155c38186614c8a565b631f10170560e11b815290506004016155db816152fe565b90506155e78185614c8a565b90506155f28161533a565b6000805160206157c383398151915281527f2f63726564656e7469616c732369737375616e6365446174653e2022000000006020820152603c0190506156388184614c8a565b90506156438161533a565b6000805160206157c38339815191528152750bd8dc9959195b9d1a585b1cc8da5cdcdd595c8f880f60521b602082015260360190506156828183614c8a565b631f10170560e11b81526004019998505050505050505050565b80516110c481614f45565b6000602082840312156156bc576156bc600080fd5b6000613ed9848461569c565b608081016156d68287613cf0565b6156e360208301866141e8565b6156f06040830185613cf0565b613dbf6060830184613cf0565b60ff9182169190811690828203908111156110c4576110c4614c5b565b60ff9182169190811690828201908111156110c4576110c4614c5b565b601181526020810170125b9d985b1a59081a195e08191a59da5d607a1b8152905061410b565b602080825281016110c481615737565b634e487b7160e01b600052601260045260246000fd5b6000826157925761579261576d565b500490565b6000826157a6576157a661576d565b500690565b81810281158282048414176110c4576110c4614c5b56fe5f3a6331346e30203c68747470733a2f2f7777772e77332e6f72672f32303138a26469706673582212200be7e264f5841acfa01b2cc2f5748ad45eb7815a0a6fd27d2473e45f782fd9a564736f6c63430008130033",
  "immutableReferences": {
    "189": [
      {
        "length": 32,
        "start": 11857
      },
      {
        "length": 32,
        "start": 11913
      },
      {
        "length": 32,
        "start": 11968
      },
      {
        "length": 32,
        "start": 12037
      }
    ]
  },
  "source": "// SPDX-License-Identifier: UNLICENSED\npragma solidity ^0.8.19 <0.9.0;\n\nstruct DidDocumentData {\n    bool reified;\n    bool deactivated;\n    uint64 creationTimestamp;\n    uint64 lastUpdateTimestamp;\n    uint authenticationsCount;\n    TrustCertification trustCertification;\n    mapping(string => VerificationMethod) verificationMethods;\n    mapping(string => Service) services;\n    mapping(string => bool) revokedCredentials;\n    string[] verificationMethodMapKeys;\n    string[] serviceMapKeys;\n    string[] revokedCredentialsMapKeys;\n}\n\nstruct TrustCertification {\n    bool valid;\n    uint64 issuanceTimestamp;\n    uint64 expirationTimestamp;\n    string issuer;\n    string credentialStatusFragment;\n    EcdsaSecp256k1Proof proof;\n}\n\nstruct EcdsaSecp256k1Proof {\n    bytes32 jwsSignatureR;\n    bytes32 jwsSignatureS;\n    uint8 jwsSignatureV;\n    uint64 createdTimestamp;\n    string issuerAssertionMethodFragment;\n}\n\nstruct VerificationMethod {\n    bool valid;\n    address blockchainAccount;\n    VerificationMethodType methodType;\n    uint keyIndex;\n    string didUrlFragment;\n}\n\nenum VerificationMethodType {\n    Authentication,\n    AssertionMethod\n}\n\nstruct Service {\n    bool valid;\n    uint keyIndex;\n    string didUrlFragment;\n    string serviceType;\n    string endpoint;\n}\n\nstruct CertificationCredential {\n    string issuer;\n    uint issuanceTimestamp;\n    uint expirationTimestamp;\n    string credentialStatusFragment;\n    EcdsaSecp256k1Proof proof;\n}\n\nenum TrustCertificationStatus {\n    Valid,\n    Deactivated,\n    Revoked\n}\n\nstruct ResolvedDidDocument {\n    bool deactivated;\n    uint createdTimestamp;\n    uint updatedTimestamp;\n    VerificationMethod[] verificationMethods;\n    Service[] services;\n    TrustCertification certification;\n    TrustCertificationStatus certificationStatus;\n}\n\nstruct ResolvedTrustChain {\n    TrustCertification[] certifications;\n    TrustCertificationStatus[] statuses;\n}\n\nerror InvalidDidUrl(string);\nerror DidDocumentNotFound(string);\nerror DidUrlResourceNotFound(string);\nerror InvalidProofSignature(string);\nerror InvalidIssuer(string);\nerror InvalidIssuanceDate(string);\nerror ExpiredCredential(string);\nerror RevokedCredential(string);\nerror DeactivatedDocument(string);\nerror AuthenticationError(string);\nerror DuplicatedResource(string);\nerror LastAuthentication(string);\nerror InvalidHexDigit(string);\n\ncontract ChainOfTrustDidSsi {\n    uint private immutable didSchemaLength;\n    bytes32 private didSchema;\n    mapping(string => DidDocumentData) private didDocuments;\n    // Development-only\n    string[] private didDocumentsMapKeys;\n\n    constructor() {\n        bytes memory schema = bytes.concat(\"did:ssi-cot-eth:\", uintToBytes(block.chainid), \":\");\n        if (schema.length > 32) {\n            revert(\"Schema error\");\n        }\n        didSchema = bytes32(schema);\n        didSchemaLength = schema.length;\n    }\n\n    function updateTrustCertification(\n        string calldata senderDid,\n        string calldata senderAuthFragment,\n        CertificationCredential calldata certificationCredential\n    ) public {\n        /*\n        Assumptions:\n        - The 4 contexts are all present\n            => If not, the JWS will be invalid\n        - The type must be [\"VerifiableCredential\", \"CertificationCredential\"]\n            => If not, the JWS will be invalid\n        - The credentialStatus.type is \"RevocationList2023\"\n            => If not, the JWS will be invalid\n        - The proof.type is \"EcdsaSecp256k1RecoverySignature2020\"\n            => If not, the JWS may be invalid\n        - The proof.created is ignored\n        - The proof.proofPurpose is \"assertionMethod\"\n            => If not, no assertion method will be retrieved from the DID document of the issuer\n        - DID URLs must be absolute\n            => If not, nothing works\n        */\n        // Verify the correctness of the credential\n        verifyCertificationCredential(certificationCredential);\n\n        // Authenticate the sender\n        DidDocumentData storage senderDidDocument = authenticateSender(\n            senderDid,\n            senderAuthFragment\n        );\n\n        // proof.verificationMethod is a valid assertion method\n        VerificationMethod memory issuerAssertionMethod = resolveVerificationMethod(\n            certificationCredential.issuer,\n            certificationCredential.proof.issuerAssertionMethodFragment\n        );\n        if (\n            !issuerAssertionMethod.valid ||\n            issuerAssertionMethod.methodType != VerificationMethodType.AssertionMethod\n        ) {\n            revert InvalidDidUrl(\"Invalid proof verification method\");\n        }\n\n        TrustCertification memory trustCertification = TrustCertification(\n            true,\n            uint64(certificationCredential.issuanceTimestamp),\n            uint64(certificationCredential.expirationTimestamp),\n            certificationCredential.issuer,\n            certificationCredential.credentialStatusFragment,\n            certificationCredential.proof\n        );\n\n        // Verify the signature\n        address signer = getSignatureSigner(senderDid, trustCertification);\n        if (signer != issuerAssertionMethod.blockchainAccount) {\n            revert InvalidProofSignature(\"Invalid signature\");\n        }\n\n        // Reify the DID document, if needed\n        reifyOrUpdateDidDocument(senderDidDocument, senderDid);\n        // Add the chain information\n        senderDidDocument.trustCertification = trustCertification;\n    }\n\n    function removeTrustCertification(\n        string calldata senderDid,\n        string calldata senderAuthFragment\n    ) public {\n        // Authenticate the user\n        DidDocumentData storage userDidDocument = authenticateSender(senderDid, senderAuthFragment);\n\n        // Remove the certification\n        if (userDidDocument.reified) {\n            userDidDocument.lastUpdateTimestamp = uint64(block.timestamp);\n            delete userDidDocument.trustCertification;\n        }\n    }\n\n    function addVerificationMethod(\n        string calldata senderDid,\n        string calldata senderAuthFragment,\n        string memory methodDidUrlFragment,\n        VerificationMethodType methodType,\n        address blockchainAccount\n    ) public {\n        // Authenticate the sender\n        DidDocumentData storage didDocument = authenticateSender(senderDid, senderAuthFragment);\n\n        // Reify the document if needed\n        reifyOrUpdateDidDocument(didDocument, senderDid);\n\n        // Check for duplicates\n        if (\n            didDocument.verificationMethods[methodDidUrlFragment].valid ||\n            didDocument.services[methodDidUrlFragment].valid\n        ) {\n            revert DuplicatedResource(\"DID URL already present\");\n        }\n\n        VerificationMethod memory verificationMethod = VerificationMethod(\n            true,\n            blockchainAccount,\n            methodType,\n            didDocument.verificationMethodMapKeys.length,\n            methodDidUrlFragment\n        );\n\n        // Add the verification method\n        didDocument.verificationMethods[methodDidUrlFragment] = verificationMethod;\n        didDocument.verificationMethodMapKeys.push(methodDidUrlFragment);\n\n        if (methodType == VerificationMethodType.Authentication) {\n            didDocument.authenticationsCount++;\n        }\n    }\n\n    function addService(\n        string calldata senderDid,\n        string calldata senderAuthFragment,\n        string calldata serviceDidUrlFragment,\n        string memory serviceType,\n        string memory endpoint\n    ) public {\n        // Authenticate the sender\n        DidDocumentData storage didDocument = authenticateSender(senderDid, senderAuthFragment);\n\n        // Reify the document if needed\n        reifyOrUpdateDidDocument(didDocument, senderDid);\n\n        // Check if it exists\n        if (\n            didDocument.verificationMethods[serviceDidUrlFragment].valid ||\n            didDocument.services[serviceDidUrlFragment].valid\n        ) {\n            revert DuplicatedResource(\"DID URL already present\");\n        }\n\n        // Add the service\n        didDocument.services[serviceDidUrlFragment] = Service(\n            true,\n            didDocument.serviceMapKeys.length,\n            serviceDidUrlFragment,\n            serviceType,\n            endpoint\n        );\n        didDocument.serviceMapKeys.push(serviceDidUrlFragment);\n    }\n\n    function updateVerificationMethod(\n        string calldata senderDid,\n        string calldata senderAuthFragment,\n        string memory methodDidUrlFragment,\n        VerificationMethodType methodType,\n        address blockchainAccount\n    ) public {\n        // Authenticate the sender\n        DidDocumentData storage didDocument = authenticateSender(senderDid, senderAuthFragment);\n\n        VerificationMethod storage methodToUpdate = didDocument.verificationMethods[\n            methodDidUrlFragment\n        ];\n        if (!methodToUpdate.valid || methodToUpdate.methodType != methodType) {\n            revert DidUrlResourceNotFound(\"Verification method not found\");\n        }\n\n        // Update the method\n        methodToUpdate.blockchainAccount = blockchainAccount;\n        didDocument.lastUpdateTimestamp = uint64(block.timestamp);\n    }\n\n    function updateService(\n        string calldata senderDid,\n        string calldata senderAuthFragment,\n        string calldata serviceDidUrlFragment,\n        string memory serviceType,\n        string memory endpoint\n    ) public {\n        // Authenticate the sender\n        DidDocumentData storage didDocument = authenticateSender(senderDid, senderAuthFragment);\n\n        Service storage serviceToUpdate = didDocument.services[serviceDidUrlFragment];\n        if (!serviceToUpdate.valid) {\n            revert DidUrlResourceNotFound(\"Service not found\");\n        }\n\n        serviceToUpdate.serviceType = serviceType;\n        serviceToUpdate.endpoint = endpoint;\n        didDocument.lastUpdateTimestamp = uint64(block.timestamp);\n    }\n\n    function removeVerificationMethod(\n        string calldata senderDid,\n        string calldata senderAuthFragment,\n        string memory methodDidUrlFragment,\n        VerificationMethodType methodType\n    ) public {\n        // Authenticate the sender\n        DidDocumentData storage didDocument = authenticateSender(senderDid, senderAuthFragment);\n\n        // Retrieve the verification method to delete\n        VerificationMethod storage methodToDelete = didDocument.verificationMethods[\n            methodDidUrlFragment\n        ];\n        if (!methodToDelete.valid || methodToDelete.methodType != methodType) {\n            revert DidUrlResourceNotFound(\"Verification method not found\");\n        }\n\n        // Disallow removing the last authentication method\n        if (methodType == VerificationMethodType.Authentication) {\n            if (didDocument.authenticationsCount == 1) {\n                revert LastAuthentication(\"Last authentication method\");\n            }\n            didDocument.authenticationsCount--;\n        }\n\n        // Remove the verification method from the keys\n        uint keyIndex = methodToDelete.keyIndex;\n        string memory lastKey = didDocument.verificationMethodMapKeys[\n            didDocument.verificationMethodMapKeys.length - 1\n        ];\n        didDocument.verificationMethodMapKeys[keyIndex] = lastKey;\n        didDocument.verificationMethodMapKeys.pop();\n        VerificationMethod storage lastVerificationMethod = didDocument.verificationMethods[\n            lastKey\n        ];\n        lastVerificationMethod.keyIndex = keyIndex;\n\n        // Remove the authentication from the map\n        delete didDocument.verificationMethods[methodDidUrlFragment];\n        didDocument.lastUpdateTimestamp = uint64(block.timestamp);\n    }\n\n    function removeService(\n        string calldata senderDid,\n        string calldata senderAuthFragment,\n        string calldata serviceDidUrlFragment\n    ) public {\n        // Authenticate the sender\n        DidDocumentData storage didDocument = authenticateSender(senderDid, senderAuthFragment);\n\n        // Retrieve the service to delete\n        Service storage serviceToDelete = didDocument.services[serviceDidUrlFragment];\n        if (!serviceToDelete.valid) {\n            revert DidUrlResourceNotFound(\"Service not found\");\n        }\n\n        // Remove the service from the keys\n        uint keyIndex = serviceToDelete.keyIndex;\n        string memory lastKey = didDocument.serviceMapKeys[didDocument.serviceMapKeys.length - 1];\n\n        didDocument.serviceMapKeys[keyIndex] = lastKey;\n        didDocument.serviceMapKeys.pop();\n        Service storage lastService = didDocument.services[lastKey];\n        lastService.keyIndex = keyIndex;\n\n        // Remove the service from the map\n        delete didDocument.services[serviceDidUrlFragment];\n        didDocument.lastUpdateTimestamp = uint64(block.timestamp);\n    }\n\n    function revokeVerifiableCredential(\n        string calldata senderDid,\n        string calldata senderAuthFragment,\n        string memory credentialStatusFragment\n    ) public {\n        // Authenticate the sender\n        DidDocumentData storage didDocument = authenticateSender(senderDid, senderAuthFragment);\n\n        reifyOrUpdateDidDocument(didDocument, senderDid);\n\n        if (!didDocument.revokedCredentials[credentialStatusFragment]) {\n            didDocument.revokedCredentials[credentialStatusFragment] = true;\n            didDocument.revokedCredentialsMapKeys.push(credentialStatusFragment);\n        }\n    }\n\n    function deactivate(string calldata senderDid, string calldata senderAuthFragment) public {\n        // Authenticate the sender\n        DidDocumentData storage didDocument = authenticateSender(senderDid, senderAuthFragment);\n\n        // Reify the document if needed\n        reifyOrUpdateDidDocument(didDocument, senderDid);\n\n        didDocument.deactivated = true;\n    }\n\n    function resolve(string calldata did) public view returns (ResolvedDidDocument memory) {\n        DidDocumentData storage didDocument = didDocuments[did];\n\n        VerificationMethod[] memory verificationMethods;\n        uint creationTimestamp;\n        uint lastUpdateTimestamp;\n\n        if (didDocument.reified) {\n            creationTimestamp = didDocument.creationTimestamp;\n            lastUpdateTimestamp = didDocument.lastUpdateTimestamp;\n            verificationMethods = new VerificationMethod[](\n                didDocument.verificationMethodMapKeys.length\n            );\n            for (uint i = 0; i < verificationMethods.length; i++) {\n                verificationMethods[i] = didDocument.verificationMethods[\n                    didDocument.verificationMethodMapKeys[i]\n                ];\n            }\n        } else {\n            creationTimestamp = block.timestamp;\n            lastUpdateTimestamp = block.timestamp;\n            verificationMethods = new VerificationMethod[](2);\n            verificationMethods[0] = createFirstVerificationMethod(\n                address(didToAddress(did)),\n                VerificationMethodType.Authentication\n            );\n            verificationMethods[1] = createFirstVerificationMethod(\n                address(didToAddress(did)),\n                VerificationMethodType.AssertionMethod\n            );\n        }\n\n        Service[] memory services = new Service[](didDocument.serviceMapKeys.length);\n        for (uint i = 0; i < services.length; i++) {\n            services[i] = didDocument.services[didDocument.serviceMapKeys[i]];\n        }\n\n        return\n            ResolvedDidDocument(\n                didDocument.deactivated,\n                creationTimestamp,\n                lastUpdateTimestamp,\n                verificationMethods,\n                services,\n                didDocument.trustCertification,\n                getCertificationStatus(\n                    didDocument.trustCertification.credentialStatusFragment,\n                    didDocuments[didDocument.trustCertification.issuer]\n                )\n            );\n    }\n\n    function resolveChain(string memory did) public view returns (ResolvedTrustChain memory) {\n        TrustCertification[] memory certifications = new TrustCertification[](10);\n        TrustCertificationStatus[] memory statuses = new TrustCertificationStatus[](10);\n\n        TrustCertification memory currentCertification = didDocuments[did].trustCertification;\n        uint8 index = 0;\n\n        while (currentCertification.valid && index < 10) {\n            DidDocumentData storage issuerDocument = didDocuments[currentCertification.issuer];\n            certifications[index] = currentCertification;\n            statuses[index] = getCertificationStatus(\n                currentCertification.credentialStatusFragment,\n                issuerDocument\n            );\n\n            // Move to parent\n            currentCertification = issuerDocument.trustCertification;\n            index++;\n        }\n\n        return ResolvedTrustChain(certifications, statuses);\n    }\n\n    function resolveVerificationMethod(\n        string calldata methodDid,\n        string calldata methodDidUrlFragment\n    ) public view returns (VerificationMethod memory) {\n        VerificationMethod memory verificationMethod;\n        DidDocumentData storage didDocument = didDocuments[methodDid];\n\n        if (didDocument.reified) {\n            verificationMethod = didDocument.verificationMethods[methodDidUrlFragment];\n        } else {\n            if (!isValidDid(methodDid)) {\n                revert InvalidDidUrl(\"Invalid DID URL verification method\");\n            }\n            // Create the verification method on the fly\n            bytes memory fragmentBytes = bytes(methodDidUrlFragment);\n            bool isAuthentication = bytes10(fragmentBytes) == \"auth-key-1\";\n            if (\n                (fragmentBytes.length == 10 && isAuthentication) ||\n                (fragmentBytes.length == 12 && bytes12(fragmentBytes) == \"assert-key-1\")\n            ) {\n                address userAddress = address(didToAddress(methodDid));\n                VerificationMethodType methodType = (isAuthentication)\n                    ? VerificationMethodType.Authentication\n                    : VerificationMethodType.AssertionMethod;\n                verificationMethod = createFirstVerificationMethod(userAddress, methodType);\n            } else {\n                verificationMethod = VerificationMethod(\n                    false,\n                    address(0),\n                    VerificationMethodType.Authentication,\n                    0,\n                    \"\"\n                );\n            }\n        }\n\n        return verificationMethod;\n    }\n\n    function resolveService(\n        string calldata serviceDid,\n        string calldata serviceFragment\n    ) public view returns (Service memory) {\n        DidDocumentData storage didDocument = didDocuments[serviceDid];\n\n        if (!didDocument.reified) {\n            revert DidUrlResourceNotFound(\"Service not found\");\n        }\n        Service memory service = didDocument.services[serviceFragment];\n\n        return service;\n    }\n\n    function resolveCredentialStatus(\n        string calldata credentialDid,\n        string calldata credentialFragment\n    ) public view returns (bool) {\n        if (!isValidDid(credentialDid)) {\n            revert InvalidDidUrl(\"Invalid credential DID\");\n        }\n\n        DidDocumentData storage didDocument = didDocuments[credentialDid];\n\n        return didDocument.revokedCredentials[credentialFragment];\n    }\n\n    function clear() public {\n        uint documentsCount = didDocumentsMapKeys.length;\n\n        while (documentsCount > 0) {\n            DidDocumentData storage didDocument = didDocuments[\n                didDocumentsMapKeys[documentsCount - 1]\n            ];\n\n            // Delete verification methods\n            uint verificationMethodsCount = didDocument.verificationMethodMapKeys.length;\n            while (verificationMethodsCount > 0) {\n                string memory key = didDocument.verificationMethodMapKeys[\n                    verificationMethodsCount - 1\n                ];\n                delete didDocument.verificationMethods[key];\n                didDocument.verificationMethodMapKeys.pop();\n                verificationMethodsCount--;\n            }\n\n            // Delete services\n            uint servicesCount = didDocument.serviceMapKeys.length;\n            while (servicesCount > 0) {\n                string memory key = didDocument.serviceMapKeys[servicesCount - 1];\n                delete didDocument.services[key];\n                didDocument.serviceMapKeys.pop();\n                servicesCount--;\n            }\n\n            // Delete revoked certifications\n            uint revokedCertificationsCount = didDocument.revokedCredentialsMapKeys.length;\n            while (revokedCertificationsCount > 0) {\n                string memory key = didDocument.revokedCredentialsMapKeys[\n                    revokedCertificationsCount - 1\n                ];\n                delete didDocument.revokedCredentials[key];\n                didDocument.revokedCredentialsMapKeys.pop();\n                revokedCertificationsCount--;\n            }\n\n            delete didDocuments[didDocumentsMapKeys[documentsCount - 1]];\n            didDocumentsMapKeys.pop();\n            documentsCount--;\n        }\n    }\n\n    function verifyCertificationCredential(\n        CertificationCredential calldata certificationCredential\n    ) private view {\n        string calldata issuer = certificationCredential.issuer;\n\n        // issuer must be a valid DID\n        if (!isValidDid(issuer)) {\n            revert InvalidIssuer(\"Invalid credential issuer DID\");\n        }\n        // issuanceDate <= now()\n        if (certificationCredential.issuanceTimestamp > block.timestamp) {\n            revert InvalidIssuanceDate(\"Invalid credential issuance date\");\n        }\n        // expirationData >= now()\n        if (certificationCredential.expirationTimestamp < block.timestamp) {\n            revert ExpiredCredential(\"The credential is expired\");\n        }\n        // The credential must not be revoked\n        if (\n            didDocuments[issuer].revokedCredentials[\n                certificationCredential.credentialStatusFragment\n            ]\n        ) {\n            revert RevokedCredential(\"Revoked credential\");\n        }\n    }\n\n    function authenticateSender(\n        string calldata senderAuthDid,\n        string calldata senderAuthFragment\n    ) private view returns (DidDocumentData storage) {\n        // senderAuthDid must be a valid DID\n        if (!isValidDid(senderAuthDid)) {\n            revert InvalidDidUrl(\"Authentication DID not valid\");\n        }\n\n        // The DID document of the user must not be deactivated\n        DidDocumentData storage senderDidDocument = didDocuments[senderAuthDid];\n        if (senderDidDocument.deactivated) {\n            revert DeactivatedDocument(\"DID deactivated\");\n        }\n\n        // Authenticate the sender of the transaction\n        bool authenticated;\n        if (senderDidDocument.reified) {\n            // Resolve the authentication method\n            VerificationMethod memory authMethod = senderDidDocument.verificationMethods[\n                senderAuthFragment\n            ];\n            authenticated =\n                authMethod.valid &&\n                authMethod.methodType == VerificationMethodType.Authentication &&\n                authMethod.blockchainAccount == msg.sender;\n        } else {\n            authenticated = address(didToAddress(senderAuthDid)) == msg.sender;\n        }\n\n        if (!authenticated) {\n            revert AuthenticationError(\"Authentication error\");\n        }\n\n        return senderDidDocument;\n    }\n\n    function getSignatureSigner(\n        string memory userDid,\n        TrustCertification memory certification\n    ) private pure returns (address) {\n        // Compute the hash of the JWS payload\n        string memory payload = string.concat(\n            \"eyJhbGciOiJFUzI1NkstUiIsImI2NCI6ZmFsc2UsImNyaXQiOlsiYjY0Il19.<\",\n            //\n            certification.issuer,\n            \"#\",\n            certification.credentialStatusFragment,\n            \"> <http://www.w3.org/1999/02/22-rdf-syntax-ns#type> <https://www.ssicot.com/RevocationList2023/#> .\\n\",\n            //\n            \"_:c14n0 <http://www.w3.org/1999/02/22-rdf-syntax-ns#type> <https://www.ssicot.com/certification-credential/#CertificationCredential> .\\n\",\n            //\n            \"_:c14n0 <http://www.w3.org/1999/02/22-rdf-syntax-ns#type> <https://www.w3.org/2018/credentials#VerifiableCredential> .\\n\",\n            //\n            \"_:c14n0 <https://www.w3.org/2018/credentials#credentialStatus> <\",\n            certification.issuer,\n            \"#\",\n            certification.credentialStatusFragment,\n            \"> .\\n\",\n            //\n            \"_:c14n0 <https://www.w3.org/2018/credentials#credentialSubject> <\",\n            userDid,\n            \"> .\\n\",\n            //\n            '_:c14n0 <https://www.w3.org/2018/credentials#expirationDate> \"',\n            timestampToIsoDate(certification.expirationTimestamp),\n            '\"^^<http://www.w3.org/2001/XMLSchema#dateTime> .\\n',\n            //\n            '_:c14n0 <https://www.w3.org/2018/credentials#issuanceDate> \"',\n            timestampToIsoDate(certification.issuanceTimestamp),\n            '\"^^<http://www.w3.org/2001/XMLSchema#dateTime> .\\n',\n            //\n            \"_:c14n0 <https://www.w3.org/2018/credentials#issuer> <\",\n            certification.issuer,\n            \"> .\\n\"\n        );\n        bytes32 hash = sha256(bytes(payload));\n\n        EcdsaSecp256k1Proof memory proof = certification.proof;\n\n        return ecrecover(hash, proof.jwsSignatureV, proof.jwsSignatureR, proof.jwsSignatureS);\n    }\n\n    function reifyOrUpdateDidDocument(\n        DidDocumentData storage didDocument,\n        string memory senderDid\n    ) private {\n        // Reify the DID document, if needed\n        if (!didDocument.reified) {\n            initializeDidDocument(didDocument, senderDid);\n        } else {\n            didDocument.lastUpdateTimestamp = uint64(block.timestamp);\n        }\n    }\n\n    function initializeDidDocument(\n        DidDocumentData storage didDocument,\n        string memory senderDid\n    ) private {\n        VerificationMethod memory authentication = createFirstVerificationMethod(\n            msg.sender,\n            VerificationMethodType.Authentication\n        );\n        VerificationMethod memory assertionMethod = createFirstVerificationMethod(\n            msg.sender,\n            VerificationMethodType.AssertionMethod\n        );\n\n        didDocument.reified = true;\n        didDocument.deactivated = false;\n        didDocument.creationTimestamp = uint64(block.timestamp);\n        didDocument.lastUpdateTimestamp = uint64(block.timestamp);\n        didDocument.verificationMethods[\"auth-key-1\"] = authentication;\n        didDocument.verificationMethods[\"assert-key-1\"] = assertionMethod;\n        didDocument.verificationMethodMapKeys.push(\"auth-key-1\");\n        didDocument.verificationMethodMapKeys.push(\"assert-key-1\");\n        didDocument.authenticationsCount = 1;\n\n        // Development-only\n        didDocumentsMapKeys.push(senderDid);\n    }\n\n    function createFirstVerificationMethod(\n        address senderAddress,\n        VerificationMethodType methodType\n    ) private pure returns (VerificationMethod memory) {\n        return\n            VerificationMethod(\n                true,\n                senderAddress,\n                methodType,\n                (methodType == VerificationMethodType.Authentication) ? 0 : 1,\n                (methodType == VerificationMethodType.Authentication)\n                    ? \"auth-key-1\"\n                    : \"assert-key-1\"\n            );\n    }\n\n    function getCertificationStatus(\n        string memory credentialStatusFragment,\n        DidDocumentData storage issuerDocument\n    ) private view returns (TrustCertificationStatus) {\n        if (issuerDocument.deactivated) {\n            return TrustCertificationStatus.Deactivated;\n        }\n        if (issuerDocument.revokedCredentials[credentialStatusFragment]) {\n            return TrustCertificationStatus.Revoked;\n        }\n\n        return TrustCertificationStatus.Valid;\n    }\n\n    function timestampToIsoDate(uint timestamp) private pure returns (string memory) {\n        (uint year, uint month, uint day) = timestampToDate(timestamp);\n\n        // 2020-01-01T01:01:01Z\n        bytes memory result = new bytes(20);\n        uintToBytes(year, result, 0, 4);\n        result[4] = \"-\";\n        uintToBytes(month, result, 5, 2);\n        result[7] = \"-\";\n        uintToBytes(day, result, 8, 2);\n        result[10] = \"T\";\n        uintToBytes((timestamp / 3600) % 24, result, 11, 2);\n        result[13] = \":\";\n        uintToBytes((timestamp / 60) % 60, result, 14, 2);\n        result[16] = \":\";\n        uintToBytes(timestamp % 60, result, 17, 2);\n        result[19] = \"Z\";\n\n        return string(result);\n    }\n\n    function timestampToDate(\n        uint timestamp\n    ) private pure returns (uint year, uint month, uint day) {\n        // Move to the 1st March 0000\n        uint timestampDays = (timestamp / (3600 * 24)) + 719468;\n        // Compute the era knowing that there are 146097 days every 400 years\n        uint era = timestampDays / 146097;\n        // Compute the day of era, ranging from 0 to 146096\n        uint dayOfEra = (timestampDays - era * 146097);\n        // Compute the year of era, ranging from 0 to 399\n        uint yearOfEra = (dayOfEra - dayOfEra / 1460 + dayOfEra / 36524 - dayOfEra / 146096) / 365;\n        // Compute the day of year, ranging from 0 to 365\n        uint dayOfYear = dayOfEra - (365 * yearOfEra + yearOfEra / 4 - yearOfEra / 100);\n        // Compute the month shifted so that the first month is March\n        uint shiftedMonth = (5 * dayOfYear + 2) / 153;\n\n        // Compute the final result\n        day = dayOfYear - (153 * shiftedMonth + 2) / 5 + 1;\n        month = shiftedMonth < 10 ? shiftedMonth + 3 : shiftedMonth - 9;\n        year = (yearOfEra + era * 400) + ((month <= 2) ? 1 : 0);\n    }\n\n    function isValidDid(string calldata stringToCheck) private view returns (bool) {\n        bytes calldata stringBytes = bytes(stringToCheck);\n        if (stringBytes.length < didSchemaLength) {\n            return false;\n        }\n        bytes32 stringDidSchema = bytes32(stringBytes[0:didSchemaLength]);\n\n        return stringBytes.length == (didSchemaLength + 40) && stringDidSchema == didSchema;\n    }\n\n    function didToAddress(string calldata did) private view returns (uint160) {\n        // Assumption: The DID is valid\n\n        bytes memory addressStringBytes = bytes(did[didSchemaLength:didSchemaLength + 40]);\n        uint160 result = 0;\n        for (uint i = 0; i < 40; i += 2) {\n            result = result << 8;\n            result |= uint160(\n                (hexToByte(addressStringBytes[i]) << 4) | hexToByte(addressStringBytes[i + 1])\n            );\n        }\n\n        return result;\n    }\n\n    function uintToBytes(uint number, bytes memory result, uint start, uint length) private pure {\n        while (length > 0) {\n            result[start + length - 1] = bytes1(48 + uint8(number % 10));\n            length--;\n            number /= 10;\n        }\n    }\n\n    function uintToBytes(uint number) private pure returns (bytes memory) {\n        uint length;\n        if (number == 0) {\n            length = 1;\n        } else {\n            uint numberCopy = number;\n            while (numberCopy > 0) {\n                length++;\n                numberCopy /= 10;\n            }\n        }\n        bytes memory result = new bytes(length);\n        uintToBytes(number, result, 0, length);\n\n        return result;\n    }\n\n    function hexToByte(bytes1 byteValue) private pure returns (uint256) {\n        uint8 value = uint8(byteValue);\n\n        if ((value >= 48 && value <= 57)) {\n            return value - 48;\n        }\n        if (value >= 97 && value <= 102) {\n            return 10 + (value - 97);\n        }\n        revert InvalidHexDigit(\"Invalid hex digit\");\n    }\n}\n",
  "sourcePath": "C:\\Users\\raffa\\Desktop\\UNIPD\\3 ANNO\\II SEM\\TIROCINIO\\Sync Lab\\ArmtanceServer\\server\\contracts\\ChainOfTrustDidSsi.sol",
  "compiler": {
    "name": "solc",
    "version": "0.8.19+commit.7dd6d404.Emscripten.clang"
  },
  "schemaVersion": "3.4.14",
  "updatedAt": "2023-06-08T17:07:35.334Z",
  "devdoc": {
    "kind": "dev",
    "methods": {},
    "version": 1
  },
  "userdoc": {
    "kind": "user",
    "methods": {},
    "version": 1
  }
}