{
  "contractName": "ChainOfTrustDidSsi",
  "abi": [
    {
      "inputs": [],
      "stateMutability": "nonpayable",
      "type": "constructor"
    },
    {
      "inputs": [
        {
          "internalType": "string",
          "name": "",
          "type": "string"
        }
      ],
      "name": "AuthenticationError",
      "type": "error"
    },
    {
      "inputs": [
        {
          "internalType": "string",
          "name": "",
          "type": "string"
        }
      ],
      "name": "DeactivatedDocument",
      "type": "error"
    },
    {
      "inputs": [
        {
          "internalType": "string",
          "name": "",
          "type": "string"
        }
      ],
      "name": "DidUrlResourceNotFound",
      "type": "error"
    },
    {
      "inputs": [
        {
          "internalType": "string",
          "name": "",
          "type": "string"
        }
      ],
      "name": "DuplicatedResource",
      "type": "error"
    },
    {
      "inputs": [
        {
          "internalType": "string",
          "name": "",
          "type": "string"
        }
      ],
      "name": "ExpiredCredential",
      "type": "error"
    },
    {
      "inputs": [
        {
          "internalType": "string",
          "name": "",
          "type": "string"
        }
      ],
      "name": "InvalidDidUrl",
      "type": "error"
    },
    {
      "inputs": [
        {
          "internalType": "string",
          "name": "",
          "type": "string"
        }
      ],
      "name": "InvalidHexDigit",
      "type": "error"
    },
    {
      "inputs": [
        {
          "internalType": "string",
          "name": "",
          "type": "string"
        }
      ],
      "name": "InvalidIssuanceDate",
      "type": "error"
    },
    {
      "inputs": [
        {
          "internalType": "string",
          "name": "",
          "type": "string"
        }
      ],
      "name": "InvalidIssuer",
      "type": "error"
    },
    {
      "inputs": [
        {
          "internalType": "string",
          "name": "",
          "type": "string"
        }
      ],
      "name": "InvalidProofSignature",
      "type": "error"
    },
    {
      "inputs": [
        {
          "internalType": "string",
          "name": "",
          "type": "string"
        }
      ],
      "name": "LastAuthentication",
      "type": "error"
    },
    {
      "inputs": [
        {
          "internalType": "string",
          "name": "",
          "type": "string"
        }
      ],
      "name": "RevokedCredential",
      "type": "error"
    },
    {
      "inputs": [
        {
          "internalType": "string",
          "name": "senderAuthDid",
          "type": "string"
        },
        {
          "internalType": "string",
          "name": "senderAuthFragment",
          "type": "string"
        },
        {
          "components": [
            {
              "internalType": "string",
              "name": "issuer",
              "type": "string"
            },
            {
              "internalType": "uint256",
              "name": "issuanceTimestamp",
              "type": "uint256"
            },
            {
              "internalType": "uint256",
              "name": "expirationTimestamp",
              "type": "uint256"
            },
            {
              "internalType": "string",
              "name": "credentialStatusFragment",
              "type": "string"
            },
            {
              "components": [
                {
                  "internalType": "bytes32",
                  "name": "jwsSignatureR",
                  "type": "bytes32"
                },
                {
                  "internalType": "bytes32",
                  "name": "jwsSignatureS",
                  "type": "bytes32"
                },
                {
                  "internalType": "uint8",
                  "name": "jwsSignatureV",
                  "type": "uint8"
                },
                {
                  "internalType": "uint64",
                  "name": "createdTimestamp",
                  "type": "uint64"
                },
                {
                  "internalType": "string",
                  "name": "issuerAssertionMethodFragment",
                  "type": "string"
                }
              ],
              "internalType": "struct EcdsaSecp256k1Proof",
              "name": "proof",
              "type": "tuple"
            }
          ],
          "internalType": "struct CertificationCredential",
          "name": "certificationCredential",
          "type": "tuple"
        }
      ],
      "name": "updateTrustCertification",
      "outputs": [],
      "stateMutability": "nonpayable",
      "type": "function"
    },
    {
      "inputs": [
        {
          "internalType": "string",
          "name": "senderAuthDid",
          "type": "string"
        },
        {
          "internalType": "string",
          "name": "senderAuthFragment",
          "type": "string"
        }
      ],
      "name": "removeTrustCertification",
      "outputs": [],
      "stateMutability": "nonpayable",
      "type": "function"
    },
    {
      "inputs": [
        {
          "internalType": "string",
          "name": "senderAuthDid",
          "type": "string"
        },
        {
          "internalType": "string",
          "name": "senderAuthFragment",
          "type": "string"
        },
        {
          "internalType": "enum VerificationMethodType",
          "name": "methodType",
          "type": "uint8"
        },
        {
          "internalType": "string",
          "name": "methodDidUrlFragment",
          "type": "string"
        },
        {
          "internalType": "address",
          "name": "blockchainAccount",
          "type": "address"
        }
      ],
      "name": "addVerificationMethod",
      "outputs": [],
      "stateMutability": "nonpayable",
      "type": "function"
    },
    {
      "inputs": [
        {
          "internalType": "string",
          "name": "senderAuthDid",
          "type": "string"
        },
        {
          "internalType": "string",
          "name": "senderAuthFragment",
          "type": "string"
        },
        {
          "internalType": "string",
          "name": "serviceDidUrlFragment",
          "type": "string"
        },
        {
          "internalType": "string",
          "name": "serviceType",
          "type": "string"
        },
        {
          "internalType": "string",
          "name": "endpoint",
          "type": "string"
        }
      ],
      "name": "addService",
      "outputs": [],
      "stateMutability": "nonpayable",
      "type": "function"
    },
    {
      "inputs": [
        {
          "internalType": "string",
          "name": "senderAuthDid",
          "type": "string"
        },
        {
          "internalType": "string",
          "name": "senderAuthFragment",
          "type": "string"
        },
        {
          "internalType": "string",
          "name": "verificationMethodFragment",
          "type": "string"
        },
        {
          "internalType": "enum VerificationMethodType",
          "name": "methodType",
          "type": "uint8"
        },
        {
          "internalType": "address",
          "name": "blockchainAccount",
          "type": "address"
        }
      ],
      "name": "updateVerificationMethod",
      "outputs": [],
      "stateMutability": "nonpayable",
      "type": "function"
    },
    {
      "inputs": [
        {
          "internalType": "string",
          "name": "senderAuthDid",
          "type": "string"
        },
        {
          "internalType": "string",
          "name": "senderAuthFragment",
          "type": "string"
        },
        {
          "internalType": "string",
          "name": "serviceDidUrlFragment",
          "type": "string"
        },
        {
          "internalType": "string",
          "name": "serviceType",
          "type": "string"
        },
        {
          "internalType": "string",
          "name": "endpoint",
          "type": "string"
        }
      ],
      "name": "updateService",
      "outputs": [],
      "stateMutability": "nonpayable",
      "type": "function"
    },
    {
      "inputs": [
        {
          "internalType": "string",
          "name": "senderAuthDid",
          "type": "string"
        },
        {
          "internalType": "string",
          "name": "senderAuthFragment",
          "type": "string"
        },
        {
          "internalType": "string",
          "name": "verificationMethodFragment",
          "type": "string"
        },
        {
          "internalType": "enum VerificationMethodType",
          "name": "methodType",
          "type": "uint8"
        }
      ],
      "name": "removeVerificationMethod",
      "outputs": [],
      "stateMutability": "nonpayable",
      "type": "function"
    },
    {
      "inputs": [
        {
          "internalType": "string",
          "name": "senderAuthDid",
          "type": "string"
        },
        {
          "internalType": "string",
          "name": "senderAuthFragment",
          "type": "string"
        },
        {
          "internalType": "string",
          "name": "serviceDidUrlFragment",
          "type": "string"
        }
      ],
      "name": "removeService",
      "outputs": [],
      "stateMutability": "nonpayable",
      "type": "function"
    },
    {
      "inputs": [
        {
          "internalType": "string",
          "name": "senderAuthDid",
          "type": "string"
        },
        {
          "internalType": "string",
          "name": "senderAuthFragment",
          "type": "string"
        },
        {
          "internalType": "string",
          "name": "credentialStatusFragment",
          "type": "string"
        }
      ],
      "name": "revokeVerifiableCredential",
      "outputs": [],
      "stateMutability": "nonpayable",
      "type": "function"
    },
    {
      "inputs": [
        {
          "internalType": "string",
          "name": "senderAuthDid",
          "type": "string"
        },
        {
          "internalType": "string",
          "name": "senderAuthFragment",
          "type": "string"
        }
      ],
      "name": "deactivate",
      "outputs": [],
      "stateMutability": "nonpayable",
      "type": "function"
    },
    {
      "inputs": [
        {
          "internalType": "string",
          "name": "did",
          "type": "string"
        }
      ],
      "name": "resolve",
      "outputs": [
        {
          "components": [
            {
              "internalType": "bool",
              "name": "valid",
              "type": "bool"
            },
            {
              "internalType": "bool",
              "name": "deactivated",
              "type": "bool"
            },
            {
              "internalType": "uint256",
              "name": "createdTimestamp",
              "type": "uint256"
            },
            {
              "internalType": "uint256",
              "name": "updatedTimestamp",
              "type": "uint256"
            },
            {
              "components": [
                {
                  "internalType": "bool",
                  "name": "valid",
                  "type": "bool"
                },
                {
                  "internalType": "address",
                  "name": "blockchainAccount",
                  "type": "address"
                },
                {
                  "internalType": "enum VerificationMethodType",
                  "name": "methodType",
                  "type": "uint8"
                },
                {
                  "internalType": "uint256",
                  "name": "keyIndex",
                  "type": "uint256"
                },
                {
                  "internalType": "string",
                  "name": "didUrlFragment",
                  "type": "string"
                }
              ],
              "internalType": "struct VerificationMethod[]",
              "name": "verificationMethods",
              "type": "tuple[]"
            },
            {
              "components": [
                {
                  "internalType": "bool",
                  "name": "valid",
                  "type": "bool"
                },
                {
                  "internalType": "uint256",
                  "name": "keyIndex",
                  "type": "uint256"
                },
                {
                  "internalType": "string",
                  "name": "didUrlFragment",
                  "type": "string"
                },
                {
                  "internalType": "string",
                  "name": "serviceType",
                  "type": "string"
                },
                {
                  "internalType": "string",
                  "name": "endpoint",
                  "type": "string"
                }
              ],
              "internalType": "struct Service[]",
              "name": "services",
              "type": "tuple[]"
            },
            {
              "components": [
                {
                  "internalType": "bool",
                  "name": "valid",
                  "type": "bool"
                },
                {
                  "internalType": "uint64",
                  "name": "issuanceTimestamp",
                  "type": "uint64"
                },
                {
                  "internalType": "uint64",
                  "name": "expirationTimestamp",
                  "type": "uint64"
                },
                {
                  "internalType": "string",
                  "name": "issuer",
                  "type": "string"
                },
                {
                  "internalType": "string",
                  "name": "credentialStatusFragment",
                  "type": "string"
                },
                {
                  "components": [
                    {
                      "internalType": "bytes32",
                      "name": "jwsSignatureR",
                      "type": "bytes32"
                    },
                    {
                      "internalType": "bytes32",
                      "name": "jwsSignatureS",
                      "type": "bytes32"
                    },
                    {
                      "internalType": "uint8",
                      "name": "jwsSignatureV",
                      "type": "uint8"
                    },
                    {
                      "internalType": "uint64",
                      "name": "createdTimestamp",
                      "type": "uint64"
                    },
                    {
                      "internalType": "string",
                      "name": "issuerAssertionMethodFragment",
                      "type": "string"
                    }
                  ],
                  "internalType": "struct EcdsaSecp256k1Proof",
                  "name": "proof",
                  "type": "tuple"
                }
              ],
              "internalType": "struct TrustCertification",
              "name": "certification",
              "type": "tuple"
            },
            {
              "internalType": "enum TrustCertificationStatus",
              "name": "certificationStatus",
              "type": "uint8"
            }
          ],
          "internalType": "struct ResolvedDidDocument",
          "name": "",
          "type": "tuple"
        }
      ],
      "stateMutability": "view",
      "type": "function"
    },
    {
      "inputs": [
        {
          "internalType": "string",
          "name": "did",
          "type": "string"
        }
      ],
      "name": "resolveChain",
      "outputs": [
        {
          "components": [
            {
              "components": [
                {
                  "internalType": "bool",
                  "name": "valid",
                  "type": "bool"
                },
                {
                  "internalType": "uint64",
                  "name": "issuanceTimestamp",
                  "type": "uint64"
                },
                {
                  "internalType": "uint64",
                  "name": "expirationTimestamp",
                  "type": "uint64"
                },
                {
                  "internalType": "string",
                  "name": "issuer",
                  "type": "string"
                },
                {
                  "internalType": "string",
                  "name": "credentialStatusFragment",
                  "type": "string"
                },
                {
                  "components": [
                    {
                      "internalType": "bytes32",
                      "name": "jwsSignatureR",
                      "type": "bytes32"
                    },
                    {
                      "internalType": "bytes32",
                      "name": "jwsSignatureS",
                      "type": "bytes32"
                    },
                    {
                      "internalType": "uint8",
                      "name": "jwsSignatureV",
                      "type": "uint8"
                    },
                    {
                      "internalType": "uint64",
                      "name": "createdTimestamp",
                      "type": "uint64"
                    },
                    {
                      "internalType": "string",
                      "name": "issuerAssertionMethodFragment",
                      "type": "string"
                    }
                  ],
                  "internalType": "struct EcdsaSecp256k1Proof",
                  "name": "proof",
                  "type": "tuple"
                }
              ],
              "internalType": "struct TrustCertification[]",
              "name": "certifications",
              "type": "tuple[]"
            },
            {
              "internalType": "enum TrustCertificationStatus[]",
              "name": "statuses",
              "type": "uint8[]"
            }
          ],
          "internalType": "struct ResolvedTrustChain",
          "name": "",
          "type": "tuple"
        }
      ],
      "stateMutability": "view",
      "type": "function"
    },
    {
      "inputs": [
        {
          "internalType": "string",
          "name": "methodDid",
          "type": "string"
        },
        {
          "internalType": "string",
          "name": "methodDidUrlFragment",
          "type": "string"
        }
      ],
      "name": "resolveVerificationMethod",
      "outputs": [
        {
          "components": [
            {
              "internalType": "bool",
              "name": "valid",
              "type": "bool"
            },
            {
              "internalType": "address",
              "name": "blockchainAccount",
              "type": "address"
            },
            {
              "internalType": "enum VerificationMethodType",
              "name": "methodType",
              "type": "uint8"
            },
            {
              "internalType": "uint256",
              "name": "keyIndex",
              "type": "uint256"
            },
            {
              "internalType": "string",
              "name": "didUrlFragment",
              "type": "string"
            }
          ],
          "internalType": "struct VerificationMethod",
          "name": "",
          "type": "tuple"
        }
      ],
      "stateMutability": "view",
      "type": "function"
    },
    {
      "inputs": [
        {
          "internalType": "string",
          "name": "serviceDid",
          "type": "string"
        },
        {
          "internalType": "string",
          "name": "serviceFragment",
          "type": "string"
        }
      ],
      "name": "resolveService",
      "outputs": [
        {
          "components": [
            {
              "internalType": "bool",
              "name": "valid",
              "type": "bool"
            },
            {
              "internalType": "uint256",
              "name": "keyIndex",
              "type": "uint256"
            },
            {
              "internalType": "string",
              "name": "didUrlFragment",
              "type": "string"
            },
            {
              "internalType": "string",
              "name": "serviceType",
              "type": "string"
            },
            {
              "internalType": "string",
              "name": "endpoint",
              "type": "string"
            }
          ],
          "internalType": "struct Service",
          "name": "",
          "type": "tuple"
        }
      ],
      "stateMutability": "view",
      "type": "function"
    },
    {
      "inputs": [
        {
          "internalType": "string",
          "name": "credentialDid",
          "type": "string"
        },
        {
          "internalType": "string",
          "name": "credentialFragment",
          "type": "string"
        }
      ],
      "name": "resolveCredentialStatus",
      "outputs": [
        {
          "internalType": "bool",
          "name": "",
          "type": "bool"
        }
      ],
      "stateMutability": "view",
      "type": "function"
    },
    {
      "inputs": [],
      "name": "clear",
      "outputs": [],
      "stateMutability": "nonpayable",
      "type": "function"
    }
  ],
  "bytecode": "0x60a06040523480156200001157600080fd5b5060006200001f4662000088565b6040516020016200003191906200020e565b6040516020818303038152906040529050602081511115620000705760405162461bcd60e51b8152600401620000679062000243565b60405180910390fd5b6200007b816200027f565b60005551608052620003c5565b60606000826000036200009e57506001620000ce565b825b8015620000cc5781620000b381620002d3565b9250620000c49050600a8262000305565b9050620000a0565b505b6000816001600160401b03811115620000eb57620000eb6200031c565b6040519080825280601f01601f19166020018201604052801562000116576020820181803683370190505b5090506200012884826000856200012f565b9392505050565b8015620001bd5762000143600a8562000332565b6200015090603062000349565b60f81b83600162000162848662000369565b6200016e91906200037f565b8151811062000181576200018162000395565b60200101906001600160f81b031916908160001a90535080620001a481620003ab565b9150620001b59050600a8562000305565b93506200012f565b50505050565b60005b83811015620001e0578181015183820152602001620001c6565b50506000910152565b6000620001f4825190565b62000204818560208601620001c3565b9290920192915050565b6f3234b21d39b9b496b1b7ba16b2ba341d60811b8152601001620002338183620001e9565b601d60f91b815260010192915050565b602080825281016200026e81600c81526b29b1b432b6b09032b93937b960a11b602082015260400190565b92915050565b60006200026e825190565b60006200028a825190565b60208301620002998162000274565b9250506020811015620002b75760001960086020839003021b821691505b50919050565b634e487b7160e01b600052601160045260246000fd5b600060018201620002e857620002e8620002bd565b5060010190565b634e487b7160e01b600052601260045260246000fd5b600082620003175762000317620002ef565b500490565b634e487b7160e01b600052604160045260246000fd5b600082620003445762000344620002ef565b500690565b60ff9182169190811690828201908111156200026e576200026e620002bd565b808201808211156200026e576200026e620002bd565b818103818111156200026e576200026e620002bd565b634e487b7160e01b600052603260045260246000fd5b600081620003bd57620003bd620002bd565b506000190190565b6080516157fb620003f660003960008181612d8b01528181612dc301528181612dfa0152612e9601526157fb6000f3fe608060405234801561001057600080fd5b50600436106101005760003560e01c806363ed4665116100975780638d6231bc116100665780638d6231bc1461022a578063de68fb911461023d578063df7d9c3614610250578063f273d60a1461026357600080fd5b806363ed4665146101d15780636419ee5d146101e45780637b129284146101f75780637f12e2f31461021757600080fd5b80633da951b9116100d35780633da951b914610176578063461a4478146101895780634f5201fd146101a957806352efea6e146101c957600080fd5b80630c00938914610105578063188cc53d1461012e57806328a1d2b8146101435780632f0b301614610156575b600080fd5b610118610113366004613ba2565b610276565b6040516101259190613cfb565b60405180910390f35b61014161013c366004613e14565b610526565b005b610141610151366004613f62565b6106fa565b610169610164366004613ba2565b6108d4565b6040516101259190614030565b610141610184366004613ba2565b610953565b61019c61019736600461403e565b6109b6565b60405161012591906143cc565b6101bc6101b736600461403e565b61120c565b60405161012591906144cb565b61014161180d565b6101416101df3660046144dc565b611d7e565b6101416101f236600461458a565b611e62565b61020a610205366004613ba2565b612109565b6040516101259190614643565b610141610225366004613e14565b6123bc565b610141610238366004614654565b612462565b61014161024b3660046146fe565b612661565b61014161025e366004613ba2565b612750565b6101416102713660046147c0565b6127fb565b6102aa6040518060a00160405280600015158152602001600081526020016060815260200160608152602001606081525090565b6000600186866040516102be92919061486a565b908152604051908190036020019020805490915060ff166102fb5760405163662b740f60e11b81526004016102f29061489b565b60405180910390fd5b600081600a01858560405161031192919061486a565b90815260408051918290036020908101832060a084018352805460ff16151584526001810154918401919091526002810180549192840191610352906148c1565b80601f016020809104026020016040519081016040528092919081815260200182805461037e906148c1565b80156103cb5780601f106103a0576101008083540402835291602001916103cb565b820191906000526020600020905b8154815290600101906020018083116103ae57829003601f168201915b505050505081526020016003820180546103e4906148c1565b80601f0160208091040260200160405190810160405280929190818152602001828054610410906148c1565b801561045d5780601f106104325761010080835404028352916020019161045d565b820191906000526020600020905b81548152906001019060200180831161044057829003601f168201915b50505050508152602001600482018054610476906148c1565b80601f01602080910402602001604051908101604052809291908181526020018280546104a2906148c1565b80156104ef5780601f106104c4576101008083540402835291602001916104ef565b820191906000526020600020905b8154815290600101906020018083116104d257829003601f168201915b5050505050815250509050806000015161051c5760405163662b740f60e11b81526004016102f29061489b565b9695505050505050565b600061053489898989612b26565b9050610576818a8a8080601f016020809104026020016040519081016040528093929190818152602001838380828437600092019190915250612d4792505050565b80600901858560405161058a92919061486a565b9081526040519081900360200190205460ff16806105cb575080600a0185856040516105b792919061486a565b9081526040519081900360200190205460ff165b156105e957604051639dd529bf60e01b81526004016102f290614919565b6040518060a0016040528060011515815260200182600d0180549050815260200186868080601f01602080910402602001604051908101604052809392919081815260200183838082843760009201919091525050509082525060208101859052604090810184905251600a830190610665908890889061486a565b90815260408051602092819003830190208351815460ff1916901515178155918301516001830155820151600282019061069f90826149bd565b50606082015160038201906106b490826149bd565b50608082015160048201906106c990826149bd565b505050600d8101805460018101825560009182526020909120016106ee858783614a7c565b50505050505050505050565b600061070888888888612b26565b905061074a8189898080601f016020809104026020016040519081016040528093929190818152602001838380828437600092019190915250612d4792505050565b806009018360405161075c9190614b62565b9081526040519081900360200190205460ff168061079b575080600a01836040516107879190614b62565b9081526040519081900360200190205460ff165b156107b957604051639dd529bf60e01b81526004016102f290614919565b60006040518060a00160405280600115158152602001846001600160a01b031681526020018660018111156107f0576107f0614081565b815260200183600c0180549050815260200185815250905080826009018560405161081b9190614b62565b908152604080516020928190038301902083518154938501516001600160a81b0319909416901515610100600160a81b031916176101006001600160a01b0390941693909302929092178083559083015190829060ff60a81b1916600160a81b83600181111561088d5761088d614081565b021790555060608201516001820155608082015160028201906108b090826149bd565b505050600c8201805460018101825560009182526020909120016106ee85826149bd565b60006108e08585612d85565b6108fd57604051630263a5c760e01b81526004016102f290614b97565b60006001868660405161091192919061486a565b9081526020016040518091039020905080600b01848460405161093592919061486a565b9081526040519081900360200190205460ff16915050949350505050565b600061096185858585612b26565b90506109a38186868080601f016020809104026020016040519081016040528093929190818152602001838380828437600092019190915250612d4792505050565b805461ff00191661010017905550505050565b6109be6139bf565b60006001836040516109d09190614b62565b90815260200160405180910390209050600081600c01805490506001600160401b03811115610a0157610a01613d13565b604051908082528060200260200182016040528015610a3a57816020015b610a27613a0e565b815260200190600190039081610a1f5790505b50905060005b8151811015610bb1578260090183600c018281548110610a6257610a62614ba7565b90600052602060002001604051610a799190614c2f565b90815260408051918290036020908101832060a084018352805460ff808216151586526001600160a01b03610100830416938601939093529092840191600160a81b909104166001811115610ad057610ad0614081565b6001811115610ae157610ae1614081565b815260200160018201548152602001600282018054610aff906148c1565b80601f0160208091040260200160405190810160405280929190818152602001828054610b2b906148c1565b8015610b785780601f10610b4d57610100808354040283529160200191610b78565b820191906000526020600020905b815481529060010190602001808311610b5b57829003601f168201915b505050505081525050828281518110610b9357610b93614ba7565b60200260200101819052508080610ba990614c4f565b915050610a40565b50600d8201546000906001600160401b03811115610bd157610bd1613d13565b604051908082528060200260200182016040528015610c3657816020015b610c236040518060a00160405280600015158152602001600081526020016060815260200160608152602001606081525090565b815260200190600190039081610bef5790505b50905060005b8151811015610e8c5783600a0184600d018281548110610c5e57610c5e614ba7565b90600052602060002001604051610c759190614c2f565b90815260408051918290036020908101832060a084018352805460ff16151584526001810154918401919091526002810180549192840191610cb6906148c1565b80601f0160208091040260200160405190810160405280929190818152602001828054610ce2906148c1565b8015610d2f5780601f10610d0457610100808354040283529160200191610d2f565b820191906000526020600020905b815481529060010190602001808311610d1257829003601f168201915b50505050508152602001600382018054610d48906148c1565b80601f0160208091040260200160405190810160405280929190818152602001828054610d74906148c1565b8015610dc15780601f10610d9657610100808354040283529160200191610dc1565b820191906000526020600020905b815481529060010190602001808311610da457829003601f168201915b50505050508152602001600482018054610dda906148c1565b80601f0160208091040260200160405190810160405280929190818152602001828054610e06906148c1565b8015610e535780601f10610e2857610100808354040283529160200191610e53565b820191906000526020600020905b815481529060010190602001808311610e3657829003601f168201915b505050505081525050828281518110610e6e57610e6e614ba7565b60200260200101819052508080610e8490614c4f565b915050610c3c565b50604080516101008082018352855460ff80821615158452828204811615156020808601919091526001600160401b03620100008404811686880152600160501b90930483166060808701919091526080860189905260a08601889052865160c0818101895260028c01805495861615158352968504861693820193909352600160481b909304909316958201959095526003880180549495860194919392840191610f37906148c1565b80601f0160208091040260200160405190810160405280929190818152602001828054610f63906148c1565b8015610fb05780601f10610f8557610100808354040283529160200191610fb0565b820191906000526020600020905b815481529060010190602001808311610f9357829003601f168201915b50505050508152602001600282018054610fc9906148c1565b80601f0160208091040260200160405190810160405280929190818152602001828054610ff5906148c1565b80156110425780601f1061101757610100808354040283529160200191611042565b820191906000526020600020905b81548152906001019060200180831161102557829003601f168201915b50505091835250506040805160a08101825260038401805482526004850154602080840191909152600586015460ff8116948401949094526101009093046001600160401b0316606083015260068501805493909401939192909160808401916110ab906148c1565b80601f01602080910402602001604051908101604052809291908181526020018280546110d7906148c1565b80156111245780601f106110f957610100808354040283529160200191611124565b820191906000526020600020905b81548152906001019060200180831161110757829003601f168201915b5050505050815250508152505081526020016111f085600201600201805461114b906148c1565b80601f0160208091040260200160405190810160405280929190818152602001828054611177906148c1565b80156111c45780601f10611199576101008083540402835291602001916111c4565b820191906000526020600020905b8154815290600101906020018083116111a757829003601f168201915b5050604051600193506111dd925060038b019150614c2f565b9081526020016040518091039020612e3b565b600281111561120157611201614081565b905295945050505050565b604080518082018252606080825260208201528151600a8082526101608201909352909160009190816020015b611241613a3d565b81526020019060019003908161123957505060408051600a8082526101608201909252919250600091906020820161014080368337019050509050600060018560405161128e9190614b62565b90815260408051918290036020908101832060c08401835260028101805460ff8116151586526001600160401b036101008204811694870194909452600160481b900490921692840192909252600390910180546060840191906112f1906148c1565b80601f016020809104026020016040519081016040528092919081815260200182805461131d906148c1565b801561136a5780601f1061133f5761010080835404028352916020019161136a565b820191906000526020600020905b81548152906001019060200180831161134d57829003601f168201915b50505050508152602001600282018054611383906148c1565b80601f01602080910402602001604051908101604052809291908181526020018280546113af906148c1565b80156113fc5780601f106113d1576101008083540402835291602001916113fc565b820191906000526020600020905b8154815290600101906020018083116113df57829003601f168201915b50505091835250506040805160a08101825260038401805482526004850154602080840191909152600586015460ff8116948401949094526101009093046001600160401b031660608301526006850180549390940193919290916080840191611465906148c1565b80601f0160208091040260200160405190810160405280929190818152602001828054611491906148c1565b80156114de5780601f106114b3576101008083540402835291602001916114de565b820191906000526020600020905b8154815290600101906020018083116114c157829003601f168201915b50505050508152505081525050905060005b8151156117f35760006001836060015160405161150d9190614b62565b9081526020016040518091039020905082858360ff168151811061153357611533614ba7565b602002602001018190525061154c836080015182612e3b565b848360ff168151811061156157611561614ba7565b6020026020010190600281111561157a5761157a614081565b9081600281111561158d5761158d614081565b9052506040805160c08101825260028301805460ff8116151583526001600160401b03610100820481166020850152600160481b90910416928201929092526003830180549192916060840191906115e4906148c1565b80601f0160208091040260200160405190810160405280929190818152602001828054611610906148c1565b801561165d5780601f106116325761010080835404028352916020019161165d565b820191906000526020600020905b81548152906001019060200180831161164057829003601f168201915b50505050508152602001600282018054611676906148c1565b80601f01602080910402602001604051908101604052809291908181526020018280546116a2906148c1565b80156116ef5780601f106116c4576101008083540402835291602001916116ef565b820191906000526020600020905b8154815290600101906020018083116116d257829003601f168201915b50505091835250506040805160a08101825260038401805482526004850154602080840191909152600586015460ff8116948401949094526101009093046001600160401b031660608301526006850180549390940193919290916080840191611758906148c1565b80601f0160208091040260200160405190810160405280929190818152602001828054611784906148c1565b80156117d15780601f106117a6576101008083540402835291602001916117d1565b820191906000526020600020905b8154815290600101906020018083116117b457829003601f168201915b505050919092525050509052509250816117ea81614c68565b925050506114f0565b505060408051808201909152918252602082015292915050565b6002545b8015611d7b576000600160026118278285614c7e565b8154811061183757611837614ba7565b9060005260206000200160405161184e9190614c2f565b908152604051908190036020019020600c8101549091505b80156119ad576000600c830161187d600184614c7e565b8154811061188d5761188d614ba7565b9060005260206000200180546118a2906148c1565b80601f01602080910402602001604051908101604052809291908181526020018280546118ce906148c1565b801561191b5780601f106118f05761010080835404028352916020019161191b565b820191906000526020600020905b8154815290600101906020018083116118fe57829003601f168201915b5050505050905082600901816040516119349190614b62565b90815260405190819003602001902080546001600160b01b03191681556000600182018190556119676002830182613ac3565b505082600c0180548061197c5761197c614c91565b6001900381819060005260206000200160006119989190613ac3565b9055816119a481614ca7565b92505050611866565b600d8201545b8015611b10576000600d84016119ca600184614c7e565b815481106119da576119da614ba7565b9060005260206000200180546119ef906148c1565b80601f0160208091040260200160405190810160405280929190818152602001828054611a1b906148c1565b8015611a685780601f10611a3d57610100808354040283529160200191611a68565b820191906000526020600020905b815481529060010190602001808311611a4b57829003601f168201915b5050505050905083600a0181604051611a819190614b62565b908152604051908190036020019020805460ff19168155600060018201819055611aae6002830182613ac3565b611abc600383016000613ac3565b611aca600483016000613ac3565b505083600d01805480611adf57611adf614c91565b600190038181906000526020600020016000611afb9190613ac3565b905581611b0781614ca7565b925050506119b3565b600e8301545b8015611c3f576000600e8501611b2d600184614c7e565b81548110611b3d57611b3d614ba7565b906000526020600020018054611b52906148c1565b80601f0160208091040260200160405190810160405280929190818152602001828054611b7e906148c1565b8015611bcb5780601f10611ba057610100808354040283529160200191611bcb565b820191906000526020600020905b815481529060010190602001808311611bae57829003601f168201915b5050505050905084600b0181604051611be49190614b62565b908152604051908190036020019020805460ff19169055600e8501805480611c0e57611c0e614c91565b600190038181906000526020600020016000611c2a9190613ac3565b905581611c3681614ca7565b92505050611b16565b60016002611c4d8288614c7e565b81548110611c5d57611c5d614ba7565b90600052602060002001604051611c749190614c2f565b908152604051908190036020019020805471ffffffffffffffffffffffffffffffffffff191681556000600182018190556002820180546001600160881b031916815581611cc56003850182613ac3565b611cd3600283016000613ac3565b6000600383018181556004840182905560058401805468ffffffffffffffffff1916905590611d056006850182613ac3565b50611d1892505050600c83016000613afd565b611d26600d83016000613afd565b611d34600e83016000613afd565b50506002805480611d4757611d47614c91565b600190038181906000526020600020016000611d639190613ac3565b905584611d6f81614ca7565b95505050505050611811565b50565b6000611d8c88888888612b26565b905060008160090185604051611da29190614b62565b908152604051908190036020019020805490915060ff161580611df25750836001811115611dd257611dd2614081565b8154600160a81b900460ff166001811115611def57611def614081565b14155b15611e105760405163662b740f60e11b81526004016102f290614cf0565b80546001600160a01b0390931661010002610100600160a81b03199093169290921790915580546001600160401b034216600160501b0267ffffffffffffffff60501b19909116179055505050505050565b6000611e7087878787612b26565b905060008160090184604051611e869190614b62565b908152604051908190036020019020805490915060ff161580611ed65750826001811115611eb657611eb6614081565b8154600160a81b900460ff166001811115611ed357611ed3614081565b14155b15611ef45760405163662b740f60e11b81526004016102f290614cf0565b6000836001811115611f0857611f08614081565b03611f4a578160010154600103611f32576040516334dc808d60e01b81526004016102f290614d32565b600182018054906000611f4483614ca7565b91905055505b600180820154600c840180549192600092611f659190614c7e565b81548110611f7557611f75614ba7565b906000526020600020018054611f8a906148c1565b80601f0160208091040260200160405190810160405280929190818152602001828054611fb6906148c1565b80156120035780601f10611fd857610100808354040283529160200191612003565b820191906000526020600020905b815481529060010190602001808311611fe657829003601f168201915b505050505090508084600c01838154811061202057612020614ba7565b90600052602060002001908161203691906149bd565b5083600c0180548061204a5761204a614c91565b6001900381819060005260206000200160006120669190613ac3565b90556000846009018260405161207c9190614b62565b90815260405190819003602001812060018101859055915060098601906120a4908990614b62565b90815260405190819003602001902080546001600160b01b03191681556000600182018190556120d76002830182613ac3565b5050845467ffffffffffffffff60501b1916600160501b426001600160401b0316021790945550505050505050505050565b612111613a0e565b612119613a0e565b60006001878760405161212d92919061486a565b908152604051908190036020019020805490915060ff161561226c5780600901858560405161215d92919061486a565b90815260408051918290036020908101832060a084018352805460ff808216151586526001600160a01b03610100830416938601939093529092840191600160a81b9091041660018111156121b4576121b4614081565b60018111156121c5576121c5614081565b8152602001600182015481526020016002820180546121e3906148c1565b80601f016020809104026020016040519081016040528092919081815260200182805461220f906148c1565b801561225c5780601f106122315761010080835404028352916020019161225c565b820191906000526020600020905b81548152906001019060200180831161223f57829003601f168201915b50505050508152505091506123b2565b6122768787612d85565b61229357604051630263a5c760e01b81526004016102f290614d82565b600085858080601f01602080910402602001604051908101604052809392919081815260200183838082843760009201829052509394506122d99250849150614da69050565b6001600160b01b03191669617574682d6b65792d3160b01b1490508151600a1480156123025750805b8061233957508151600c148015612339575061231d82614df9565b6001600160a01b0319166b6173736572742d6b65792d3160a01b145b1561237257600061234a8a8a612e90565b905060008261235a57600161235d565b60005b90506123698282612f8f565b955050506123af565b6040805160a08101825260008082526020820181905290918201908152602001600081526020016040518060200160405280600081525081525093505b50505b5095945050505050565b60006123ca89898989612b26565b9050600081600a0186866040516123e292919061486a565b908152604051908190036020019020805490915060ff166124165760405163662b740f60e11b81526004016102f29061489b565b6003810161242485826149bd565b506004810161243384826149bd565b5050805467ffffffffffffffff60501b1916600160501b426001600160401b0316021790555050505050505050565b600061247087878787612b26565b9050600081600a01848460405161248892919061486a565b908152604051908190036020019020805490915060ff166124bc5760405163662b740f60e11b81526004016102f29061489b565b600180820154600d8401805491926000926124d79190614c7e565b815481106124e7576124e7614ba7565b9060005260206000200180546124fc906148c1565b80601f0160208091040260200160405190810160405280929190818152602001828054612528906148c1565b80156125755780601f1061254a57610100808354040283529160200191612575565b820191906000526020600020905b81548152906001019060200180831161255857829003601f168201915b505050505090508084600d01838154811061259257612592614ba7565b9060005260206000200190816125a891906149bd565b5083600d018054806125bc576125bc614c91565b6001900381819060005260206000200160006125d89190613ac3565b9055600084600a01826040516125ee9190614b62565b908152604051908190036020018120600181018590559150600a860190612618908990899061486a565b908152604051908190036020019020805460ff191681556000600182018190556126456002830182613ac3565b612653600383016000613ac3565b6120d7600483016000613ac3565b600061266f86868686612b26565b90506126b18187878080601f016020809104026020016040519081016040528093929190818152602001838380828437600092019190915250612d4792505050565b80600b01826040516126c39190614b62565b9081526040519081900360200190205460ff16156126f457604051634dba377360e01b81526004016102f290614e65565b600181600b01836040516127089190614b62565b90815260405160209181900382019020805460ff191692151592909217909155600e8201805460018101825560009182529190200161274783826149bd565b50505050505050565b600061275e85858585612b26565b805490915060ff16156127f457805467ffffffffffffffff60501b1916600160501b426001600160401b0316021781556002810180546001600160881b031916815560006127af6003840182613ac3565b6127bd600283016000613ac3565b6000600383018181556004840182905560058401805468ffffffffffffffffff19169055906127ef6006850182613ac3565b505050505b5050505050565b61280481613059565b600061281286868686612b26565b9050600061283e6128238480614e75565b6128306080870187614ec9565b610205906080810190614e75565b80519091501580612865575060018160400151600181111561286257612862614081565b14155b1561288357604051630263a5c760e01b81526004016102f290614f29565b6040805160c081018252600181526001600160401b03602086810135821690830152858301351691810191909152600090606081016128c28680614e75565b8080601f0160208091040260200160405190810160405280939291908181526020018383808284376000920191909152505050908252506020016129096060870187614e75565b8080601f0160208091040260200160405190810160405280939291908181526020018383808284376000920191909152505050908252506020016129506080870187614ec9565b61295990615013565b815250905060006129a189898080601f016020809104026020016040519081016040528093929190818152602001838380828437600092019190915250869250613150915050565b905082602001516001600160a01b0316816001600160a01b0316146129d95760405163c6be21f760e01b81526004016102f290615045565b612a19848a8a8080601f016020809104026020016040519081016040528093929190818152602001838380828437600092019190915250612d4792505050565b81516002850180546020850151604086015168ffffffffffffffffff1990921693151568ffffffffffffffff001916939093176101006001600160401b03948516021770ffffffffffffffff0000000000000000001916600160481b939091169290920291909117815560608301518391906003870190612a9a90826149bd565b5060808201516002820190612aaf90826149bd565b5060a082015180516003830190815560208201516004840155604082015160058401805460608501516001600160401b03166101000268ffffffffffffffffff1990911660ff9093169290921791909117905560808201516006840190612b1690826149bd565b5050505050505050505050505050565b6000612b328585612d85565b612b4f57604051630263a5c760e01b81526004016102f290615087565b600060018686604051612b6392919061486a565b908152604051908190036020019020805490915060ff6101009091041615612b9e57604051637bb96abd60e01b81526004016102f2906150bb565b805460009060ff1615612d11576000826009018686604051612bc192919061486a565b90815260408051918290036020908101832060a084018352805460ff808216151586526001600160a01b03610100830416938601939093529092840191600160a81b909104166001811115612c1857612c18614081565b6001811115612c2957612c29614081565b815260200160018201548152602001600282018054612c47906148c1565b80601f0160208091040260200160405190810160405280929190818152602001828054612c73906148c1565b8015612cc05780601f10612c9557610100808354040283529160200191612cc0565b820191906000526020600020905b815481529060010190602001808311612ca357829003601f168201915b505050505081525050905080600001518015612cf15750600081604001516001811115612cef57612cef614081565b145b8015612d09575060208101516001600160a01b031633145b915050612d29565b33612d1c8888612e90565b6001600160a01b03161490505b806123b257604051630398aaeb60e11b81526004016102f2906150f4565b815460ff16612d5e57612d5a8282613284565b5050565b815467ffffffffffffffff60501b1916600160501b426001600160401b0316021782555050565b600082827f0000000000000000000000000000000000000000000000000000000000000000811015612dbc57600092505050612e35565b6000612dea7f0000000000000000000000000000000000000000000000000000000000000000828486615104565b612df391615134565b9050612e207f00000000000000000000000000000000000000000000000000000000000000006028615158565b82148015612e2f575060005481145b93505050505b92915050565b8054600090610100900460ff1615612e5557506001612e35565b81600b0183604051612e679190614b62565b9081526040519081900360200190205460ff1615612e8757506002612e35565b50600092915050565b600080837f000000000000000000000000000000000000000000000000000000000000000084612ec1826028615158565b92612ece93929190615104565b8080601f016020809104026020016040519081016040528093929190818152602001838380828437600092018290525093945083925050505b6028811015612f86576008826001600160a01b0316901b9150612f5583826001612f319190615158565b81518110612f4157612f41614ba7565b01602001516001600160f81b031916613525565b6004612f6c858481518110612f4157612f41614ba7565b901b179190911790612f7f600282615158565b9050612f07565b50949350505050565b612f97613a0e565b6040518060a00160405280600115158152602001846001600160a01b03168152602001836001811115612fcc57612fcc614081565b81526020016000815260200160006001811115612feb57612feb614081565b846001811115612ffd57612ffd614081565b1461302c576040518060400160405280600c81526020016b6173736572742d6b65792d3160a01b815250613050565b6040518060400160405280600a815260200169617574682d6b65792d3160b01b8152505b90529392505050565b3660006130668380614e75565b915091506130748282612d85565b61309157604051631da3607160e11b81526004016102f29061519d565b42836020013511156130b65760405163cafc520360e01b81526004016102f2906151dd565b42836040013510156130db5760405163b281dfab60e01b81526004016102f29061521f565b600182826040516130ed92919061486a565b908152604051908190036020019020600b0161310c6060850185614e75565b60405161311a92919061486a565b9081526040519081900360200190205460ff161561314b57604051634dba377360e01b81526004016102f290615256565b505050565b60008082606001518360800151846060015185608001518761317e88604001516001600160401b03166135a7565b61319489602001516001600160401b03166135a7565b89606001516040516020016131b0989796959493929190615371565b604051602081830303815290604052905060006002826040516131d39190614b62565b602060405180830381855afa1580156131f0573d6000803e3d6000fd5b5050506040513d601f19601f82011682018060405250810190613213919061568a565b905060008460a0015190506001828260400151836000015184602001516040516000815260200160405260405161324d94939291906156ab565b6020604051602081039080840390855afa15801561326f573d6000803e3d6000fd5b5050604051601f190151979650505050505050565b6000613291336000612f8f565b905060006132a0336001612f8f565b8454600160501b6001600160401b03421690810267ffffffffffffffff60501b19620100009290920269ffffffffffffffffffff1990931692909217600117161785556040519091508290600986019061330a9069617574682d6b65792d3160b01b8152600a0190565b908152604080516020928190038301902083518154938501516001600160a81b0319909416901515610100600160a81b031916176101006001600160a01b0390941693909302929092178083559083015190829060ff60a81b1916600160a81b83600181111561337c5761337c614081565b0217905550606082015160018201556080820151600282019061339f90826149bd565b5050604080516b6173736572742d6b65792d3160a01b815260098701600c8201528151602c918190039190910190208351815460208601516001600160a01b031661010002610100600160a81b0319921515929092166001600160a81b03199091161717808255918401518493509091829060ff60a81b1916600160a81b83600181111561342f5761342f614081565b0217905550606082015160018201556080820151600282019061345290826149bd565b505050600c84018054600181018255600091825260209182902060408051808201909152600a815269617574682d6b65792d3160b01b93810193909352019061349b90826149bd565b50600c80850180546001810182556000918252602091829020604080518082019091529384526b6173736572742d6b65792d3160a01b9284019290925201906134e490826149bd565b5060018481018190556002805491820181556000527f405787fa12a823e0f2b7631cc41b3ba8828b3321ca811111fa75cd3aa3bb5ace016127f484826149bd565b600060f882901c60308110801590613541575060398160ff1611155b1561355b576135516030826156e0565b60ff169392505050565b60618160ff1610158015613573575060668160ff1611155b1561358e576135836061826156e0565b61355190600a6156fd565b60405163af6197c960e01b81526004016102f290615740565b606060008060006135b78561378e565b6040805160148082528183019092529396509194509250600091906020820181803683370190505090506135ef84826000600461393c565b602d60f81b8160048151811061360757613607614ba7565b60200101906001600160f81b031916908160001a90535061362c83826005600261393c565b602d60f81b8160078151811061364457613644614ba7565b60200101906001600160f81b031916908160001a90535061366982826008600261393c565b601560fa1b81600a8151811061368157613681614ba7565b60200101906001600160f81b031916908160001a9053506136bd60186136a9610e1089615766565b6136b3919061577a565b82600b600261393c565b601d60f91b81600d815181106136d5576136d5614ba7565b60200101906001600160f81b031916908160001a90535061370f603c6136fb8189615766565b613705919061577a565b82600e600261393c565b601d60f91b8160108151811061372757613727614ba7565b60200101906001600160f81b031916908160001a90535061375661374c603c8861577a565b826011600261393c565b602d60f91b8160138151811061376e5761376e614ba7565b60200101906001600160f81b031916908160001a90535095945050505050565b60008080806137a06201518086615766565b6137ad90620afa6c615158565b905060006137be62023ab183615766565b905060006137cf8262023ab161578e565b6137d99084614c7e565b9050600061016d6137ed62023ab084615766565b6137f9618eac85615766565b6138056105b486615766565b61380f9086614c7e565b6138199190615158565b6138239190614c7e565b61382d9190615766565b9050600061383c606483615766565b613847600484615766565b6138538461016d61578e565b61385d9190615158565b6138679190614c7e565b6138719084614c7e565b90506000609961388283600561578e565b61388d906002615158565b6138979190615766565b905060056138a682609961578e565b6138b1906002615158565b6138bb9190615766565b6138c59083614c7e565b6138d0906001615158565b9650600a81106138ea576138e5600982614c7e565b6138f5565b6138f5816003615158565b9750600288111561390757600061390a565b60015b60ff166139198661019061578e565b6139239085615158565b61392d9190615158565b98505050505050509193909250565b80156139b95761394d600a8561577a565b6139589060306156fd565b60f81b8360016139688486615158565b6139729190614c7e565b8151811061398257613982614ba7565b60200101906001600160f81b031916908160001a905350806139a381614ca7565b91506139b29050600a85615766565b935061393c565b50505050565b60405180610100016040528060001515815260200160001515815260200160008152602001600081526020016060815260200160608152602001613a01613a3d565b815260200160005b905290565b6040805160a0810182526000808252602082018190529091820190815260200160008152602001606081525090565b6040518060c0016040528060001515815260200160006001600160401b0316815260200160006001600160401b031681526020016060815260200160608152602001613a096040518060a001604052806000801916815260200160008019168152602001600060ff16815260200160006001600160401b03168152602001606081525090565b508054613acf906148c1565b6000825580601f10613adf575050565b601f016020900490600052602060002090810190611d7b9190613b1b565b5080546000825590600052602060002090810190611d7b9190613b34565b5b80821115613b305760008155600101613b1c565b5090565b80821115613b30576000613b488282613ac3565b50600101613b34565b60008083601f840112613b6657613b66600080fd5b5081356001600160401b03811115613b8057613b80600080fd5b602083019150836001820283011115613b9b57613b9b600080fd5b9250929050565b60008060008060408587031215613bbb57613bbb600080fd5b84356001600160401b03811115613bd457613bd4600080fd5b613be087828801613b51565b945094505060208501356001600160401b03811115613c0157613c01600080fd5b613c0d87828801613b51565b95989497509550505050565b8015155b82525050565b80613c1d565b60005b83811015613c44578181015183820152602001613c2c565b50506000910152565b6000613c57825190565b808452602084019350613c6e818560208601613c29565b601f01601f19169290920192915050565b805160009060a0840190613c938582613c19565b506020830151613ca66020860182613c23565b5060408301518482036040860152613cbe8282613c4d565b91505060608301518482036060860152613cd88282613c4d565b91505060808301518482036080860152613cf28282613c4d565b95945050505050565b60208082528101613d0c8184613c7f565b9392505050565b634e487b7160e01b600052604160045260246000fd5b601f19601f83011681018181106001600160401b0382111715613d4e57613d4e613d13565b6040525050565b6000613d6060405190565b9050613d6c8282613d29565b919050565b60006001600160401b03821115613d8a57613d8a613d13565b601f19601f83011660200192915050565b82818337506000910152565b6000613dba613db584613d71565b613d55565b905082815260208101848484011115613dd557613dd5600080fd5b613de0848285613d9b565b509392505050565b600082601f830112613dfc57613dfc600080fd5b8135613e0c848260208601613da7565b949350505050565b60008060008060008060008060a0898b031215613e3357613e33600080fd5b88356001600160401b03811115613e4c57613e4c600080fd5b613e588b828c01613b51565b985098505060208901356001600160401b03811115613e7957613e79600080fd5b613e858b828c01613b51565b965096505060408901356001600160401b03811115613ea657613ea6600080fd5b613eb28b828c01613b51565b945094505060608901356001600160401b03811115613ed357613ed3600080fd5b613edf8b828c01613de8565b92505060808901356001600160401b03811115613efe57613efe600080fd5b613f0a8b828c01613de8565b9150509295985092959890939650565b60028110611d7b57600080fd5b8035612e3581613f1a565b60006001600160a01b038216612e35565b613f4c81613f32565b8114611d7b57600080fd5b8035612e3581613f43565b600080600080600080600060a0888a031215613f8057613f80600080fd5b87356001600160401b03811115613f9957613f99600080fd5b613fa58a828b01613b51565b975097505060208801356001600160401b03811115613fc657613fc6600080fd5b613fd28a828b01613b51565b95509550506040613fe58a828b01613f27565b93505060608801356001600160401b0381111561400457614004600080fd5b6140108a828b01613de8565b92505060806140218a828b01613f57565b91505092959891949750929550565b60208101612e358284613c19565b60006020828403121561405357614053600080fd5b81356001600160401b0381111561406c5761406c600080fd5b613e0c84828501613de8565b613c1d81613f32565b634e487b7160e01b600052602160045260246000fd5b60028110611d7b57611d7b614081565b80613d6c81614097565b6000612e35826140a7565b613c1d816140b1565b805160009060a08401906140d98582613c19565b5060208301516140ec6020860182614078565b5060408301516140ff60408601826140bc565b5060608301516141126060860182613c23565b5060808301518482036080860152613cf28282613c4d565b6000613d0c83836140c5565b60200190565b6000614146825190565b808452602084019350836020820285016141608560200190565b60005b84811015614194578383038852815161417c848261412a565b93505060208201602098909801979150600101614163565b50909695505050505050565b6000613d0c8383613c7f565b60006141b6825190565b808452602084019350836020820285016141d08560200190565b60005b8481101561419457838303885281516141ec84826141a0565b935050602082016020989098019791506001016141d3565b6001600160401b038116613c1d565b60ff8116613c1d565b805160009060a08401906142308582613c23565b5060208301516142436020860182613c23565b5060408301516142566040860182614213565b5060608301516141126060860182614204565b805160009060c084019061427d8582613c19565b5060208301516142906020860182614204565b5060408301516142a36040860182614204565b50606083015184820360608601526142bb8282613c4d565b915050608083015184820360808601526142d58282613c4d565b91505060a083015184820360a0860152613cf2828261421c565b60038110611d7b57611d7b614081565b80613d6c816142ef565b6000612e35826142ff565b613c1d81614309565b80516000906101008401906143328582613c19565b5060208301516143456020860182613c19565b5060408301516143586040860182613c23565b50606083015161436b6060860182613c23565b5060808301518482036080860152614383828261413c565b91505060a083015184820360a086015261439d82826141ac565b91505060c083015184820360c08601526143b78282614269565b91505060e0830151613de060e0860182614314565b60208082528101613d0c818461431d565b6000613d0c8383614269565b60006143f3825190565b8084526020840193508360208202850161440d8560200190565b60005b84811015614194578383038852815161442984826143dd565b93505060208201602098909801979150600101614410565b61444b8282614314565b5060200190565b600061445c825190565b808452602093840193830160005b8281101561448f57815161447e8782614441565b96505060208201915060010161446a565b5093949350505050565b80516040808452600091908401906144b182826143e9565b91505060208301518482036020860152613cf28282614452565b60208082528101613d0c8184614499565b600080600080600080600060a0888a0312156144fa576144fa600080fd5b87356001600160401b0381111561451357614513600080fd5b61451f8a828b01613b51565b975097505060208801356001600160401b0381111561454057614540600080fd5b61454c8a828b01613b51565b955095505060408801356001600160401b0381111561456d5761456d600080fd5b6145798a828b01613de8565b93505060606140108a828b01613f27565b600080600080600080608087890312156145a6576145a6600080fd5b86356001600160401b038111156145bf576145bf600080fd5b6145cb89828a01613b51565b965096505060208701356001600160401b038111156145ec576145ec600080fd5b6145f889828a01613b51565b945094505060408701356001600160401b0381111561461957614619600080fd5b61462589828a01613de8565b925050606061463689828a01613f27565b9150509295509295509295565b60208082528101613d0c81846140c5565b6000806000806000806060878903121561467057614670600080fd5b86356001600160401b0381111561468957614689600080fd5b61469589828a01613b51565b965096505060208701356001600160401b038111156146b6576146b6600080fd5b6146c289828a01613b51565b945094505060408701356001600160401b038111156146e3576146e3600080fd5b6146ef89828a01613b51565b92509250509295509295509295565b60008060008060006060868803121561471957614719600080fd5b85356001600160401b0381111561473257614732600080fd5b61473e88828901613b51565b955095505060208601356001600160401b0381111561475f5761475f600080fd5b61476b88828901613b51565b935093505060408601356001600160401b0381111561478c5761478c600080fd5b61479888828901613de8565b9150509295509295909350565b600060a082840312156147ba576147ba600080fd5b50919050565b6000806000806000606086880312156147db576147db600080fd5b85356001600160401b038111156147f4576147f4600080fd5b61480088828901613b51565b955095505060208601356001600160401b0381111561482157614821600080fd5b61482d88828901613b51565b935093505060408601356001600160401b0381111561484e5761484e600080fd5b614798888289016147a5565b614865828483613d9b565b500190565b613d0c81838561485a565b60118152602081017014d95c9d9a58d9481b9bdd08199bdd5b99607a1b81529050614136565b60208082528101612e3581614875565b634e487b7160e01b600052602260045260246000fd5b6002810460018216806148d557607f821691505b6020821081036147ba576147ba6148ab565b60178152602081017f4449442055524c20616c72656164792070726573656e7400000000000000000081529050614136565b60208082528101612e35816148e7565b6000612e356149358381565b90565b61494183614929565b815460001960089490940293841b1916921b91909117905550565b600061314b818484614938565b81811015612d5a5761497c60008261495c565b600101614969565b601f82111561314b576000818152602090206020601f850104810160208510156149ab5750805b6127f46020601f860104830182614969565b81516001600160401b038111156149d6576149d6613d13565b6149e082546148c1565b6149eb828285614984565b506020601f821160018114614a205760008315614a085750848201515b600019600885021c19811660028502178555506127f4565b600084815260208120601f198516915b82811015614a505787850151825560209485019460019092019101614a30565b5084821015614a6d5783870151600019601f87166008021c191681555b50505050600202600101905550565b826001600160401b03811115614a9457614a94613d13565b614a9e82546148c1565b614aa9828285614984565b506000601f821160018114614ade5760008315614ac65750848201355b600019600885021c1981166002850217855550614b38565b600084815260209020601f19841690835b82811015614b0f5787850135825560209485019460019092019101614aef565b5084821015614b2c57600019601f86166008021c19848801351681555b50506001600284020184555b505050505050565b6000614b4a825190565b614b58818560208601613c29565b9290920192915050565b612e358183614b40565b601681526020810175125b9d985b1a590818dc9959195b9d1a585b0811125160521b81529050614136565b60208082528101612e3581614b6c565b634e487b7160e01b600052603260045260246000fd5b60008154614bca816148c1565b600182168015614be15760018114614bf657614c26565b60ff1983168652811515820286019350614c26565b60008581526020902060005b83811015614c1e57815488820152600190910190602001614c02565b505081860193505b50505092915050565b612e358183614bbd565b634e487b7160e01b600052601160045260246000fd5b600060018201614c6157614c61614c39565b5060010190565b60ff16600060fe198201614c6157614c61614c39565b81810381811115612e3557612e35614c39565b634e487b7160e01b600052603160045260246000fd5b600081614cb657614cb6614c39565b506000190190565b601d8152602081017f566572696669636174696f6e206d6574686f64206e6f7420666f756e6400000081529050614136565b60208082528101612e3581614cbe565b601a8152602081017f4c6173742061757468656e7469636174696f6e206d6574686f6400000000000081529050614136565b60208082528101612e3581614d00565b60238152602081017f496e76616c6964204449442055524c20766572696669636174696f6e206d65748152621a1bd960ea1b602082015290505b60400190565b60208082528101612e3581614d42565b6000612e3582516001600160b01b03191690565b6000614db0825190565b60208301614dbd81614d92565b925050600a8110156147ba576001600160b01b0319600a8290036008021b5b90911692915050565b6000612e3582516001600160a01b03191690565b6000614e03825190565b60208301614e1081614de5565b925050600c8110156147ba576001600160a01b0319600c8290036008021b614ddc565b601a8152602081017f43726564656e7469616c20616c7265616479207265766f6b656400000000000081529050614136565b60208082528101612e3581614e33565b6000808335601e1936859003018112614e9057614e90600080fd5b830191505080356001600160401b03811115614eae57614eae600080fd5b602082019150600181023603821315613b9b57613b9b600080fd5b60008235609e1936849003018112614ee357614ee3600080fd5b9190910192915050565b60218152602081017f496e76616c69642070726f6f6620766572696669636174696f6e206d6574686f8152601960fa1b60208201529050614d7c565b60208082528101612e3581614eed565b80613f4c565b8035612e3581614f39565b60ff8116613f4c565b8035612e3581614f4a565b6001600160401b038116613f4c565b8035612e3581614f5e565b600060a08284031215614f8d57614f8d600080fd5b614f9760a0613d55565b90506000614fa58484614f3f565b908201526020614fb784848301614f3f565b908201526040614fc984848301614f53565b908201526060614fdb84848301614f6d565b9082015260808201356001600160401b03811115614ffb57614ffb600080fd5b61500784828501613de8565b60808301525092915050565b6000612e353683614f78565b601181526020810170496e76616c6964207369676e617475726560781b81529050614136565b60208082528101612e358161501f565b601c8152602081017f41757468656e7469636174696f6e20444944206e6f742076616c69640000000081529050614136565b60208082528101612e3581615055565b600f8152602081016e1112510819195858dd1a5d985d1959608a1b81529050614136565b60208082528101612e3581615097565b60148152602081017320baba3432b73a34b1b0ba34b7b71032b93937b960611b81529050614136565b60208082528101612e35816150cb565b6000808585111561511757615117600080fd5b8386111561512757615127600080fd5b5050820193919092039150565b80358260208110156151515760001960086020839003021b821691505b5092915050565b80820180821115612e3557612e35614c39565b601d8152602081017f496e76616c69642063726564656e7469616c206973737565722044494400000081529050614136565b60208082528101612e358161516b565b60208082527f496e76616c69642063726564656e7469616c2069737375616e636520646174659101908152614136565b60208082528101612e35816151ad565b60198152602081017f5468652063726564656e7469616c20697320657870697265640000000000000081529050614136565b60208082528101612e35816151ed565b60128152602081017114995d9bdad9590818dc9959195b9d1a585b60721b81529050614136565b60208082528101612e358161522f565b7f65794a68624763694f694a46557a49314e6b737455694973496d49324e43493681527f5a6d467363325573496d4e79615851694f6c7369596a5930496c31392e3c000060208201525b603e0190565b6000805160206157a683398151915281527f2f63726564656e7469616c732363726564656e7469616c5374617475733e203c6020820152614d7c565b6000805160206157a683398151915281527f2f63726564656e7469616c732365787069726174696f6e446174653e2022000060208201526152b0565b7f225e5e3c687474703a2f2f7777772e77332e6f72672f323030312f584d4c53638152703432b6b091b230ba32aa34b6b29f10170560791b602082015260310190565b61537a81615266565b9050615386818a614b40565b602360f81b8152905060010161539c8189614b40565b7f3e203c687474703a2f2f7777772e77332e6f72672f313939392f30322f32322d81527f7264662d73796e7461782d6e7323747970653e203c68747470733a2f2f77777760208201527f2e737369636f742e636f6d2f5265766f636174696f6e4c697374323032332f236040820152631f10170560e11b60608201527f5f3a6331346e30203c687474703a2f2f7777772e77332e6f72672f313939392f606482018190527f30322f32322d7264662d73796e7461782d6e7323747970653e203c6874747073608483018190527f3a2f2f7777772e737369636f742e636f6d2f63726564656e7469616c732f234360a48401527f657274696669636174696f6e43726564656e7469616c3e202e0a00000000000060c484015260de83019190915260fe8201527f3a2f2f7777772e77332e6f72672f323031382f63726564656e7469616c73235661011e8201527f657269666961626c6543726564656e7469616c3e202e0a00000000000000000061013e82015261015501905061551e816152b6565b905061552a8188614b40565b602360f81b815290506001016155408187614b40565b631f10170560e11b8152905060040161559a816000805160206157a683398151915281527f2f63726564656e7469616c732363726564656e7469616c5375626a6563743e206020820152600f60fa1b604082015260410190565b90506155a68186614b40565b631f10170560e11b815290506004016155be816152f2565b90506155ca8185614b40565b90506155d58161532e565b6000805160206157a683398151915281527f2f63726564656e7469616c732369737375616e6365446174653e2022000000006020820152603c01905061561b8184614b40565b90506156268161532e565b6000805160206157a68339815191528152750bd8dc9959195b9d1a585b1cc8da5cdcdd595c8f880f60521b602082015260360190506156658183614b40565b631f10170560e11b81526004019998505050505050505050565b8051612e3581614f39565b60006020828403121561569f5761569f600080fd5b6000613e0c848461567f565b608081016156b98287613c23565b6156c66020830186614213565b6156d36040830185613c23565b613cf26060830184613c23565b60ff918216919081169082820390811115612e3557612e35614c39565b60ff918216919081169082820190811115612e3557612e35614c39565b601181526020810170125b9d985b1a59081a195e08191a59da5d607a1b81529050614136565b60208082528101612e358161571a565b634e487b7160e01b600052601260045260246000fd5b60008261577557615775615750565b500490565b60008261578957615789615750565b500690565b8181028115828204841417612e3557612e35614c3956fe5f3a6331346e30203c68747470733a2f2f7777772e77332e6f72672f32303138a264697066735822122045cf891f20205be947a027589bc8c296e319e1444c180e305565a9f318daa39964736f6c63430008130033",
  "immutableReferences": {
    "191": [
      {
        "length": 32,
        "start": 11659
      },
      {
        "length": 32,
        "start": 11715
      },
      {
        "length": 32,
        "start": 11770
      },
      {
        "length": 32,
        "start": 11926
      }
    ]
  },
  "source": "// SPDX-License-Identifier: UNLICENSED\npragma solidity ^0.8.19 <0.9.0;\n\nstruct DidDocumentData {\n    bool reified;\n    bool deactivated;\n    uint64 creationTimestamp;\n    uint64 lastUpdateTimestamp;\n    uint authenticationsCount;\n    TrustCertification trustCertification;\n    mapping(string => VerificationMethod) verificationMethods;\n    mapping(string => Service) services;\n    mapping(string => bool) revokedCredentials;\n    string[] verificationMethodMapKeys;\n    string[] serviceMapKeys;\n    string[] revokedCredentialsMapKeys;\n}\n\nstruct TrustCertification {\n    bool valid;\n    uint64 issuanceTimestamp;\n    uint64 expirationTimestamp;\n    string issuer;\n    string credentialStatusFragment;\n    EcdsaSecp256k1Proof proof;\n}\n\nstruct EcdsaSecp256k1Proof {\n    bytes32 jwsSignatureR;\n    bytes32 jwsSignatureS;\n    uint8 jwsSignatureV;\n    uint64 createdTimestamp;\n    string issuerAssertionMethodFragment;\n}\n\nstruct VerificationMethod {\n    bool valid;\n    address blockchainAccount;\n    VerificationMethodType methodType;\n    uint keyIndex;\n    string didUrlFragment;\n}\n\nenum VerificationMethodType {\n    Authentication,\n    AssertionMethod\n}\n\nstruct Service {\n    bool valid;\n    uint keyIndex;\n    string didUrlFragment;\n    string serviceType;\n    string endpoint;\n}\n\nstruct CertificationCredential {\n    string issuer;\n    uint issuanceTimestamp;\n    uint expirationTimestamp;\n    string credentialStatusFragment;\n    EcdsaSecp256k1Proof proof;\n}\n\nenum TrustCertificationStatus {\n    Valid,\n    Deactivated,\n    Revoked\n}\n\nstruct ResolvedDidDocument {\n    bool valid;\n    bool deactivated;\n    uint createdTimestamp;\n    uint updatedTimestamp;\n    VerificationMethod[] verificationMethods;\n    Service[] services;\n    TrustCertification certification;\n    TrustCertificationStatus certificationStatus;\n}\n\nstruct ResolvedTrustChain {\n    TrustCertification[] certifications;\n    TrustCertificationStatus[] statuses;\n}\n\nerror InvalidDidUrl(string);\nerror DidDocumentNotFound(string);\nerror DidUrlResourceNotFound(string);\nerror InvalidProofSignature(string);\nerror InvalidIssuer(string);\nerror InvalidIssuanceDate(string);\nerror ExpiredCredential(string);\nerror RevokedCredential(string);\nerror DeactivatedDocument(string);\nerror AuthenticationError(string);\nerror DuplicatedResource(string);\nerror LastAuthentication(string);\nerror InvalidHexDigit(string);\n\ncontract ChainOfTrustDidSsi {\n    uint private immutable didSchemaLength;\n    bytes32 private didSchema;\n    mapping(string => DidDocumentData) private didDocuments;\n    // Development-only\n    string[] private didDocumentsMapKeys;\n\n    constructor() {\n        bytes memory schema = bytes.concat(\"did:ssi-cot-eth:\", uintToBytes(block.chainid), \":\");\n        if (schema.length > 32) {\n            revert(\"Schema error\");\n        }\n        didSchema = bytes32(schema);\n        didSchemaLength = schema.length;\n    }\n\n    function updateTrustCertification(\n        string calldata senderAuthDid,\n        string calldata senderAuthFragment,\n        CertificationCredential calldata certificationCredential\n    ) public {\n        /*\n        Assumptions:\n        - The 4 contexts are all present\n            => If not, the JWS will be invalid\n        - The type must be [\"VerifiableCredential\", \"CertificationCredential\"]\n            => If not, the JWS will be invalid\n        - The credentialStatus.type is \"RevocationList2023\"\n            => If not, the JWS will be invalid\n        - The proof.type is \"EcdsaSecp256k1RecoverySignature2020\"\n            => If not, the JWS may be invalid\n        - The proof.created is ignored\n        - The proof.proofPurpose is \"assertionMethod\"\n            => If not, no assertion method will be retrieved from the DID document of the issuer\n        - DID URLs must be absolute\n            => If not, nothing works\n        */\n        // Verify the correctness of the credential\n        verifyCertificationCredential(certificationCredential);\n\n        // Authenticate the sender\n        DidDocumentData storage senderDidDocument = authenticateSender(\n            senderAuthDid,\n            senderAuthFragment\n        );\n\n        // proof.verificationMethod is a valid assertion method\n        VerificationMethod memory issuerAssertionMethod = resolveVerificationMethod(\n            certificationCredential.issuer,\n            certificationCredential.proof.issuerAssertionMethodFragment\n        );\n        if (\n            !issuerAssertionMethod.valid ||\n            issuerAssertionMethod.methodType != VerificationMethodType.AssertionMethod\n        ) {\n            revert InvalidDidUrl(\"Invalid proof verification method\");\n        }\n\n        TrustCertification memory trustCertification = TrustCertification(\n            true,\n            uint64(certificationCredential.issuanceTimestamp),\n            uint64(certificationCredential.expirationTimestamp),\n            certificationCredential.issuer,\n            certificationCredential.credentialStatusFragment,\n            certificationCredential.proof\n        );\n\n        // Verify the signature\n        address signer = getSignatureSigner(senderAuthDid, trustCertification);\n        if (signer != issuerAssertionMethod.blockchainAccount) {\n            revert InvalidProofSignature(\"Invalid signature\");\n        }\n\n        // Reify the DID document, if needed\n        reifyOrUpdateDidDocument(senderDidDocument, senderAuthDid);\n        // Add the chain information\n        senderDidDocument.trustCertification = trustCertification;\n    }\n\n    function removeTrustCertification(\n        string calldata senderAuthDid,\n        string calldata senderAuthFragment\n    ) public {\n        // Authenticate the user\n        DidDocumentData storage userDidDocument = authenticateSender(\n            senderAuthDid,\n            senderAuthFragment\n        );\n\n        // Remove the certification\n        if (userDidDocument.reified) {\n            userDidDocument.lastUpdateTimestamp = uint64(block.timestamp);\n            delete userDidDocument.trustCertification;\n        }\n    }\n\n    function addVerificationMethod(\n        string calldata senderAuthDid,\n        string calldata senderAuthFragment,\n        VerificationMethodType methodType,\n        string memory methodDidUrlFragment,\n        address blockchainAccount\n    ) public {\n        // Authenticate the sender\n        DidDocumentData storage didDocument = authenticateSender(senderAuthDid, senderAuthFragment);\n\n        // Reify the document if needed\n        reifyOrUpdateDidDocument(didDocument, senderAuthDid);\n\n        // Check for duplicates\n        if (\n            didDocument.verificationMethods[methodDidUrlFragment].valid ||\n            didDocument.services[methodDidUrlFragment].valid\n        ) {\n            revert DuplicatedResource(\"DID URL already present\");\n        }\n\n        VerificationMethod memory verificationMethod = VerificationMethod(\n            true,\n            blockchainAccount,\n            methodType,\n            didDocument.verificationMethodMapKeys.length,\n            methodDidUrlFragment\n        );\n\n        // Add the verification method\n        didDocument.verificationMethods[methodDidUrlFragment] = verificationMethod;\n        didDocument.verificationMethodMapKeys.push(methodDidUrlFragment);\n    }\n\n    function addService(\n        string calldata senderAuthDid,\n        string calldata senderAuthFragment,\n        string calldata serviceDidUrlFragment,\n        string memory serviceType,\n        string memory endpoint\n    ) public {\n        // Authenticate the sender\n        DidDocumentData storage didDocument = authenticateSender(senderAuthDid, senderAuthFragment);\n\n        // Reify the document if needed\n        reifyOrUpdateDidDocument(didDocument, senderAuthDid);\n\n        // Check if it exists\n        if (\n            didDocument.verificationMethods[serviceDidUrlFragment].valid ||\n            didDocument.services[serviceDidUrlFragment].valid\n        ) {\n            revert DuplicatedResource(\"DID URL already present\");\n        }\n\n        // Add the service\n        didDocument.services[serviceDidUrlFragment] = Service(\n            true,\n            didDocument.serviceMapKeys.length,\n            serviceDidUrlFragment,\n            serviceType,\n            endpoint\n        );\n        didDocument.serviceMapKeys.push(serviceDidUrlFragment);\n    }\n\n    function updateVerificationMethod(\n        string calldata senderAuthDid,\n        string calldata senderAuthFragment,\n        string memory verificationMethodFragment,\n        VerificationMethodType methodType,\n        address blockchainAccount\n    ) public {\n        // Authenticate the sender\n        DidDocumentData storage didDocument = authenticateSender(senderAuthDid, senderAuthFragment);\n\n        VerificationMethod storage methodToUpdate = didDocument.verificationMethods[\n            verificationMethodFragment\n        ];\n        if (!methodToUpdate.valid || methodToUpdate.methodType != methodType) {\n            revert DidUrlResourceNotFound(\"Verification method not found\");\n        }\n\n        // Update the method\n        methodToUpdate.blockchainAccount = blockchainAccount;\n        didDocument.lastUpdateTimestamp = uint64(block.timestamp);\n    }\n\n    function updateService(\n        string calldata senderAuthDid,\n        string calldata senderAuthFragment,\n        string calldata serviceDidUrlFragment,\n        string memory serviceType,\n        string memory endpoint\n    ) public {\n        // Authenticate the sender\n        DidDocumentData storage didDocument = authenticateSender(senderAuthDid, senderAuthFragment);\n\n        Service storage serviceToUpdate = didDocument.services[serviceDidUrlFragment];\n        if (!serviceToUpdate.valid) {\n            revert DidUrlResourceNotFound(\"Service not found\");\n        }\n\n        serviceToUpdate.serviceType = serviceType;\n        serviceToUpdate.endpoint = endpoint;\n        didDocument.lastUpdateTimestamp = uint64(block.timestamp);\n    }\n\n    function removeVerificationMethod(\n        string calldata senderAuthDid,\n        string calldata senderAuthFragment,\n        string memory verificationMethodFragment,\n        VerificationMethodType methodType\n    ) public {\n        // Authenticate the sender\n        DidDocumentData storage didDocument = authenticateSender(senderAuthDid, senderAuthFragment);\n\n        // Retrieve the verification method to delete\n        VerificationMethod storage methodToDelete = didDocument.verificationMethods[\n            verificationMethodFragment\n        ];\n        if (!methodToDelete.valid || methodToDelete.methodType != methodType) {\n            revert DidUrlResourceNotFound(\"Verification method not found\");\n        }\n\n        // Disallow removing the last authentication method\n        if (methodType == VerificationMethodType.Authentication) {\n            if (didDocument.authenticationsCount == 1) {\n                revert LastAuthentication(\"Last authentication method\");\n            }\n            didDocument.authenticationsCount--;\n        }\n\n        // Remove the verification method from the keys\n        uint keyIndex = methodToDelete.keyIndex;\n        string memory lastKey = didDocument.verificationMethodMapKeys[\n            didDocument.verificationMethodMapKeys.length - 1\n        ];\n        didDocument.verificationMethodMapKeys[keyIndex] = lastKey;\n        didDocument.verificationMethodMapKeys.pop();\n        VerificationMethod storage lastVerificationMethod = didDocument.verificationMethods[\n            lastKey\n        ];\n        lastVerificationMethod.keyIndex = keyIndex;\n\n        // Remove the authentication from the map\n        delete didDocument.verificationMethods[verificationMethodFragment];\n        didDocument.lastUpdateTimestamp = uint64(block.timestamp);\n    }\n\n    function removeService(\n        string calldata senderAuthDid,\n        string calldata senderAuthFragment,\n        string calldata serviceDidUrlFragment\n    ) public {\n        // Authenticate the sender\n        DidDocumentData storage didDocument = authenticateSender(senderAuthDid, senderAuthFragment);\n\n        // Retrieve the service to delete\n        Service storage serviceToDelete = didDocument.services[serviceDidUrlFragment];\n        if (!serviceToDelete.valid) {\n            revert DidUrlResourceNotFound(\"Service not found\");\n        }\n\n        // Remove the service from the keys\n        uint keyIndex = serviceToDelete.keyIndex;\n        string memory lastKey = didDocument.serviceMapKeys[didDocument.serviceMapKeys.length - 1];\n\n        didDocument.serviceMapKeys[keyIndex] = lastKey;\n        didDocument.serviceMapKeys.pop();\n        Service storage lastService = didDocument.services[lastKey];\n        lastService.keyIndex = keyIndex;\n\n        // Remove the service from the map\n        delete didDocument.services[serviceDidUrlFragment];\n        didDocument.lastUpdateTimestamp = uint64(block.timestamp);\n    }\n\n    function revokeVerifiableCredential(\n        string calldata senderAuthDid,\n        string calldata senderAuthFragment,\n        string memory credentialStatusFragment\n    ) public {\n        // Authenticate the sender\n        DidDocumentData storage didDocument = authenticateSender(senderAuthDid, senderAuthFragment);\n\n        reifyOrUpdateDidDocument(didDocument, senderAuthDid);\n\n        if (didDocument.revokedCredentials[credentialStatusFragment]) {\n            revert RevokedCredential(\"Credential already revoked\");\n        }\n\n        didDocument.revokedCredentials[credentialStatusFragment] = true;\n        didDocument.revokedCredentialsMapKeys.push(credentialStatusFragment);\n    }\n\n    function deactivate(string calldata senderAuthDid, string calldata senderAuthFragment) public {\n        // Authenticate the sender\n        DidDocumentData storage didDocument = authenticateSender(senderAuthDid, senderAuthFragment);\n\n        // Reify the document if needed\n        reifyOrUpdateDidDocument(didDocument, senderAuthDid);\n\n        didDocument.deactivated = true;\n    }\n\n    function resolve(string memory did) public view returns (ResolvedDidDocument memory) {\n        DidDocumentData storage didDocument = didDocuments[did];\n\n        VerificationMethod[] memory verificationMethods = new VerificationMethod[](\n            didDocument.verificationMethodMapKeys.length\n        );\n        for (uint i = 0; i < verificationMethods.length; i++) {\n            verificationMethods[i] = didDocument.verificationMethods[\n                didDocument.verificationMethodMapKeys[i]\n            ];\n        }\n\n        Service[] memory services = new Service[](didDocument.serviceMapKeys.length);\n        for (uint i = 0; i < services.length; i++) {\n            services[i] = didDocument.services[didDocument.serviceMapKeys[i]];\n        }\n\n        return\n            ResolvedDidDocument(\n                didDocument.reified,\n                didDocument.deactivated,\n                didDocument.creationTimestamp,\n                didDocument.lastUpdateTimestamp,\n                verificationMethods,\n                services,\n                didDocument.trustCertification,\n                getCertificationStatus(\n                    didDocument.trustCertification.credentialStatusFragment,\n                    didDocuments[didDocument.trustCertification.issuer]\n                )\n            );\n    }\n\n    function resolveChain(string memory did) public view returns (ResolvedTrustChain memory) {\n        TrustCertification[] memory certifications = new TrustCertification[](10);\n        TrustCertificationStatus[] memory statuses = new TrustCertificationStatus[](10);\n\n        TrustCertification memory currentCertification = didDocuments[did].trustCertification;\n        uint8 index = 0;\n\n        while (currentCertification.valid) {\n            DidDocumentData storage issuerDocument = didDocuments[currentCertification.issuer];\n            certifications[index] = currentCertification;\n            statuses[index] = getCertificationStatus(\n                currentCertification.credentialStatusFragment,\n                issuerDocument\n            );\n\n            // Move to parent\n            currentCertification = issuerDocument.trustCertification;\n            index++;\n        }\n\n        return ResolvedTrustChain(certifications, statuses);\n    }\n\n    function resolveVerificationMethod(\n        string calldata methodDid,\n        string calldata methodDidUrlFragment\n    ) public view returns (VerificationMethod memory) {\n        VerificationMethod memory verificationMethod;\n        DidDocumentData storage didDocument = didDocuments[methodDid];\n\n        if (didDocument.reified) {\n            verificationMethod = didDocument.verificationMethods[methodDidUrlFragment];\n        } else {\n            if (!isValidDid(methodDid)) {\n                revert InvalidDidUrl(\"Invalid DID URL verification method\");\n            }\n            // Create the verification method on the fly\n            bytes memory fragmentBytes = bytes(methodDidUrlFragment);\n            bool isAuthentication = bytes10(fragmentBytes) == \"auth-key-1\";\n            if (\n                (fragmentBytes.length == 10 && isAuthentication) ||\n                (fragmentBytes.length == 12 && bytes12(fragmentBytes) == \"assert-key-1\")\n            ) {\n                address userAddress = address(didToAddress(methodDid));\n                VerificationMethodType methodType = (isAuthentication)\n                    ? VerificationMethodType.Authentication\n                    : VerificationMethodType.AssertionMethod;\n                verificationMethod = createFirstVerificationMethod(userAddress, methodType);\n            } else {\n                verificationMethod = VerificationMethod(\n                    false,\n                    address(0),\n                    VerificationMethodType.Authentication,\n                    0,\n                    \"\"\n                );\n            }\n        }\n\n        return verificationMethod;\n    }\n\n    function resolveService(\n        string calldata serviceDid,\n        string calldata serviceFragment\n    ) public view returns (Service memory) {\n        DidDocumentData storage didDocument = didDocuments[serviceDid];\n\n        if (!didDocument.reified) {\n            revert DidUrlResourceNotFound(\"Service not found\");\n        }\n        Service memory service = didDocument.services[serviceFragment];\n        if (!service.valid) {\n            revert DidUrlResourceNotFound(\"Service not found\");\n        }\n\n        return service;\n    }\n\n    function resolveCredentialStatus(\n        string calldata credentialDid,\n        string calldata credentialFragment\n    ) public view returns (bool) {\n        if (!isValidDid(credentialDid)) {\n            revert InvalidDidUrl(\"Invalid credential DID\");\n        }\n\n        DidDocumentData storage didDocument = didDocuments[credentialDid];\n\n        return didDocument.revokedCredentials[credentialFragment];\n    }\n\n    function clear() public {\n        uint documentsCount = didDocumentsMapKeys.length;\n\n        while (documentsCount > 0) {\n            DidDocumentData storage didDocument = didDocuments[\n                didDocumentsMapKeys[documentsCount - 1]\n            ];\n\n            // Delete verification methods\n            uint verificationMethodsCount = didDocument.verificationMethodMapKeys.length;\n            while (verificationMethodsCount > 0) {\n                string memory key = didDocument.verificationMethodMapKeys[\n                    verificationMethodsCount - 1\n                ];\n                delete didDocument.verificationMethods[key];\n                didDocument.verificationMethodMapKeys.pop();\n                verificationMethodsCount--;\n            }\n\n            // Delete services\n            uint servicesCount = didDocument.serviceMapKeys.length;\n            while (servicesCount > 0) {\n                string memory key = didDocument.serviceMapKeys[servicesCount - 1];\n                delete didDocument.services[key];\n                didDocument.serviceMapKeys.pop();\n                servicesCount--;\n            }\n\n            // Delete revoked certifications\n            uint revokedCertificationsCount = didDocument.revokedCredentialsMapKeys.length;\n            while (revokedCertificationsCount > 0) {\n                string memory key = didDocument.revokedCredentialsMapKeys[\n                    revokedCertificationsCount - 1\n                ];\n                delete didDocument.revokedCredentials[key];\n                didDocument.revokedCredentialsMapKeys.pop();\n                revokedCertificationsCount--;\n            }\n\n            delete didDocuments[didDocumentsMapKeys[documentsCount - 1]];\n            didDocumentsMapKeys.pop();\n            documentsCount--;\n        }\n    }\n\n    function verifyCertificationCredential(\n        CertificationCredential calldata certificationCredential\n    ) private view {\n        string calldata issuer = certificationCredential.issuer;\n\n        // issuer must be a valid DID\n        if (!isValidDid(issuer)) {\n            revert InvalidIssuer(\"Invalid credential issuer DID\");\n        }\n        // issuanceDate <= now()\n        if (certificationCredential.issuanceTimestamp > block.timestamp) {\n            revert InvalidIssuanceDate(\"Invalid credential issuance date\");\n        }\n        // expirationData >= now()\n        if (certificationCredential.expirationTimestamp < block.timestamp) {\n            revert ExpiredCredential(\"The credential is expired\");\n        }\n        // The credential must not be revoked\n        if (\n            didDocuments[issuer].revokedCredentials[\n                certificationCredential.credentialStatusFragment\n            ]\n        ) {\n            revert RevokedCredential(\"Revoked credential\");\n        }\n    }\n\n    function authenticateSender(\n        string calldata senderAuthDid,\n        string calldata senderAuthFragment\n    ) private view returns (DidDocumentData storage) {\n        // senderAuthDid must be a valid DID\n        if (!isValidDid(senderAuthDid)) {\n            revert InvalidDidUrl(\"Authentication DID not valid\");\n        }\n\n        // The DID document of the user must not be deactivated\n        DidDocumentData storage senderDidDocument = didDocuments[senderAuthDid];\n        if (senderDidDocument.deactivated) {\n            revert DeactivatedDocument(\"DID deactivated\");\n        }\n\n        // Authenticate the sender of the transaction\n        bool authenticated;\n        if (senderDidDocument.reified) {\n            // Resolve the authentication method\n            VerificationMethod memory authMethod = senderDidDocument.verificationMethods[\n                senderAuthFragment\n            ];\n            authenticated =\n                authMethod.valid &&\n                authMethod.methodType == VerificationMethodType.Authentication &&\n                authMethod.blockchainAccount == msg.sender;\n        } else {\n            authenticated = address(didToAddress(senderAuthDid)) == msg.sender;\n        }\n\n        if (!authenticated) {\n            revert AuthenticationError(\"Authentication error\");\n        }\n\n        return senderDidDocument;\n    }\n\n    function getSignatureSigner(\n        string memory userDid,\n        TrustCertification memory certification\n    ) private pure returns (address) {\n        // Compute the hash of the JWS payload\n        string memory payload = string.concat(\n            \"eyJhbGciOiJFUzI1NkstUiIsImI2NCI6ZmFsc2UsImNyaXQiOlsiYjY0Il19.<\",\n            //\n            certification.issuer,\n            \"#\",\n            certification.credentialStatusFragment,\n            \"> <http://www.w3.org/1999/02/22-rdf-syntax-ns#type> <https://www.ssicot.com/RevocationList2023/#> .\\n\",\n            //\n            \"_:c14n0 <http://www.w3.org/1999/02/22-rdf-syntax-ns#type> <https://www.ssicot.com/credentials/#CertificationCredential> .\\n\",\n            //\n            \"_:c14n0 <http://www.w3.org/1999/02/22-rdf-syntax-ns#type> <https://www.w3.org/2018/credentials#VerifiableCredential> .\\n\",\n            //\n            \"_:c14n0 <https://www.w3.org/2018/credentials#credentialStatus> <\",\n            certification.issuer,\n            \"#\",\n            certification.credentialStatusFragment,\n            \"> .\\n\",\n            //\n            \"_:c14n0 <https://www.w3.org/2018/credentials#credentialSubject> <\",\n            userDid,\n            \"> .\\n\",\n            //\n            '_:c14n0 <https://www.w3.org/2018/credentials#expirationDate> \"',\n            timestampToIsoDate(certification.expirationTimestamp),\n            '\"^^<http://www.w3.org/2001/XMLSchema#dateTime> .\\n',\n            //\n            '_:c14n0 <https://www.w3.org/2018/credentials#issuanceDate> \"',\n            timestampToIsoDate(certification.issuanceTimestamp),\n            '\"^^<http://www.w3.org/2001/XMLSchema#dateTime> .\\n',\n            //\n            \"_:c14n0 <https://www.w3.org/2018/credentials#issuer> <\",\n            certification.issuer,\n            \"> .\\n\"\n        );\n        bytes32 hash = sha256(bytes(payload));\n\n        EcdsaSecp256k1Proof memory proof = certification.proof;\n\n        return ecrecover(hash, proof.jwsSignatureV, proof.jwsSignatureR, proof.jwsSignatureS);\n    }\n\n    function reifyOrUpdateDidDocument(\n        DidDocumentData storage didDocument,\n        string memory userDid\n    ) private {\n        // Reify the DID document, if needed\n        if (!didDocument.reified) {\n            initializeDidDocument(didDocument, userDid);\n        } else {\n            didDocument.lastUpdateTimestamp = uint64(block.timestamp);\n        }\n    }\n\n    function initializeDidDocument(\n        DidDocumentData storage didDocument,\n        string memory userDid\n    ) private {\n        VerificationMethod memory authentication = createFirstVerificationMethod(\n            msg.sender,\n            VerificationMethodType.Authentication\n        );\n        VerificationMethod memory assertionMethod = createFirstVerificationMethod(\n            msg.sender,\n            VerificationMethodType.AssertionMethod\n        );\n\n        didDocument.reified = true;\n        didDocument.deactivated = false;\n        didDocument.creationTimestamp = uint64(block.timestamp);\n        didDocument.lastUpdateTimestamp = uint64(block.timestamp);\n        didDocument.verificationMethods[\"auth-key-1\"] = authentication;\n        didDocument.verificationMethods[\"assert-key-1\"] = assertionMethod;\n        didDocument.verificationMethodMapKeys.push(\"auth-key-1\");\n        didDocument.verificationMethodMapKeys.push(\"assert-key-1\");\n        didDocument.authenticationsCount = 1;\n\n        // Development-only\n        didDocumentsMapKeys.push(userDid);\n    }\n\n    function createFirstVerificationMethod(\n        address userAddress,\n        VerificationMethodType methodType\n    ) private pure returns (VerificationMethod memory) {\n        return\n            VerificationMethod(\n                true,\n                userAddress,\n                methodType,\n                0,\n                (methodType == VerificationMethodType.Authentication)\n                    ? \"auth-key-1\"\n                    : \"assert-key-1\"\n            );\n    }\n\n    function getCertificationStatus(\n        string memory credentialStatusFragment,\n        DidDocumentData storage issuerDocument\n    ) private view returns (TrustCertificationStatus) {\n        if (issuerDocument.deactivated) {\n            return TrustCertificationStatus.Deactivated;\n        }\n        if (issuerDocument.revokedCredentials[credentialStatusFragment]) {\n            return TrustCertificationStatus.Revoked;\n        }\n\n        return TrustCertificationStatus.Valid;\n    }\n\n    function timestampToIsoDate(uint timestamp) private pure returns (string memory) {\n        (uint year, uint month, uint day) = timestampToDate(timestamp);\n\n        // 2020-01-01T01:01:01Z\n        bytes memory result = new bytes(20);\n        uintToBytes(year, result, 0, 4);\n        result[4] = \"-\";\n        uintToBytes(month, result, 5, 2);\n        result[7] = \"-\";\n        uintToBytes(day, result, 8, 2);\n        result[10] = \"T\";\n        uintToBytes((timestamp / 3600) % 24, result, 11, 2);\n        result[13] = \":\";\n        uintToBytes((timestamp / 60) % 60, result, 14, 2);\n        result[16] = \":\";\n        uintToBytes(timestamp % 60, result, 17, 2);\n        result[19] = \"Z\";\n\n        return string(result);\n    }\n\n    function timestampToDate(\n        uint timestamp\n    ) private pure returns (uint year, uint month, uint day) {\n        // Move to the 1st March 0000\n        uint timestampDays = (timestamp / (3600 * 24)) + 719468;\n        // Compute the era knowing that there are 146097 days every 400 years\n        uint era = timestampDays / 146097;\n        // Compute the day of era, ranging from 0 to 146096\n        uint dayOfEra = (timestampDays - era * 146097);\n        // Compute the year of era, ranging from 0 to 399\n        uint yearOfEra = (dayOfEra - dayOfEra / 1460 + dayOfEra / 36524 - dayOfEra / 146096) / 365;\n        // Compute the day of year, ranging from 0 to 365\n        uint dayOfYear = dayOfEra - (365 * yearOfEra + yearOfEra / 4 - yearOfEra / 100);\n        // Compute the month shifted so that the first month is March\n        uint shiftedMonth = (5 * dayOfYear + 2) / 153;\n\n        // Compute the final result\n        day = dayOfYear - (153 * shiftedMonth + 2) / 5 + 1;\n        month = shiftedMonth < 10 ? shiftedMonth + 3 : shiftedMonth - 9;\n        year = (yearOfEra + era * 400) + ((month <= 2) ? 1 : 0);\n    }\n\n    function isValidDid(string calldata stringToCheck) private view returns (bool) {\n        bytes calldata stringBytes = bytes(stringToCheck);\n        if (stringBytes.length < didSchemaLength) {\n            return false;\n        }\n        bytes32 stringDidSchema = bytes32(stringBytes[0:didSchemaLength]);\n\n        return stringBytes.length == (didSchemaLength + 40) && stringDidSchema == didSchema;\n    }\n\n    function didToAddress(string calldata did) private view returns (uint160) {\n        // Assumption: The DID is valid\n\n        bytes memory addressStringBytes = bytes(did[didSchemaLength:didSchemaLength + 40]);\n        uint160 result = 0;\n        for (uint i = 0; i < 40; i += 2) {\n            result = result << 8;\n            result |= uint160(\n                (hexToByte(addressStringBytes[i]) << 4) | hexToByte(addressStringBytes[i + 1])\n            );\n        }\n\n        return result;\n    }\n\n    function uintToBytes(uint number, bytes memory result, uint start, uint length) private pure {\n        while (length > 0) {\n            result[start + length - 1] = bytes1(48 + uint8(number % 10));\n            length--;\n            number /= 10;\n        }\n    }\n\n    function uintToBytes(uint number) private pure returns (bytes memory) {\n        uint length;\n        if (number == 0) {\n            length = 1;\n        } else {\n            uint numberCopy = number;\n            while (numberCopy > 0) {\n                length++;\n                numberCopy /= 10;\n            }\n        }\n        bytes memory result = new bytes(length);\n        uintToBytes(number, result, 0, length);\n\n        return result;\n    }\n\n    function hexToByte(bytes1 byteValue) private pure returns (uint256) {\n        uint8 value = uint8(byteValue);\n\n        if ((value >= 48 && value <= 57)) {\n            return value - 48;\n        }\n        if (value >= 97 && value <= 102) {\n            return 10 + (value - 97);\n        }\n        revert InvalidHexDigit(\"Invalid hex digit\");\n    }\n}\n",
  "sourcePath": "C:\\Users\\raffa\\Desktop\\UNIPD\\3 ANNO\\II SEM\\TIROCINIO\\Sync Lab\\ArmtanceServer\\server\\contracts\\ChainIdTrustDidSsi.sol",
  "compiler": {
    "name": "solc",
    "version": "0.8.19+commit.7dd6d404.Emscripten.clang"
  },
  "schemaVersion": "3.4.14",
  "updatedAt": "2023-06-07T18:00:58.653Z",
  "devdoc": {
    "kind": "dev",
    "methods": {},
    "version": 1
  },
  "userdoc": {
    "kind": "user",
    "methods": {},
    "version": 1
  }
}