{
  "contractName": "Inheritance",
  "abi": [
    {
      "inputs": [],
      "stateMutability": "nonpayable",
      "type": "constructor"
    },
    {
      "inputs": [
        {
          "internalType": "uint256",
          "name": "_heirId",
          "type": "uint256"
        },
        {
          "internalType": "string",
          "name": "_heirDid",
          "type": "string"
        },
        {
          "internalType": "bool",
          "name": "_delegation",
          "type": "bool"
        }
      ],
      "name": "setHeir",
      "outputs": [
        {
          "internalType": "bool",
          "name": "",
          "type": "bool"
        }
      ],
      "stateMutability": "nonpayable",
      "type": "function"
    },
    {
      "inputs": [
        {
          "internalType": "uint256",
          "name": "index",
          "type": "uint256"
        },
        {
          "internalType": "string",
          "name": "_heirDid",
          "type": "string"
        },
        {
          "internalType": "uint256",
          "name": "_accountId",
          "type": "uint256"
        },
        {
          "internalType": "address payable",
          "name": "_accountAddress",
          "type": "address"
        },
        {
          "internalType": "uint256",
          "name": "_accountAmount",
          "type": "uint256"
        }
      ],
      "name": "setHeirAddresses",
      "outputs": [
        {
          "internalType": "bool",
          "name": "",
          "type": "bool"
        }
      ],
      "stateMutability": "nonpayable",
      "type": "function"
    }
  ],
  "bytecode": "0x608060405234801561001057600080fd5b5060408051602081019091523390819052600a80546001600160a01b031916909117905561068f806100436000396000f3fe608060405234801561001057600080fd5b50600436106100365760003560e01c80635e3ed7c91461003b578063bd1f4ff214610064575b600080fd5b61004e6100493660046102f7565b610077565b60405161005b9190610362565b60405180910390f35b61004e610072366004610395565b6100fd565b600a546000906001600160a01b031633146100ad5760405162461bcd60e51b81526004016100a490610428565b60405180910390fd5b6000600b846040516100bf91906104a9565b9081526040519081900360200190208581559050600181016100e18582610599565b50600201805483151560ff199091161790555060019392505050565b600a546000906001600160a01b0316331461012a5760405162461bcd60e51b81526004016100a490610428565b6040518060600160405280858152602001846001600160a01b0316815260200183815250600b8660405161015e91906104a9565b90815260408051602092819003830190206000998a526003018252978890208251815590820151600180830180546001600160a01b0319166001600160a01b039093169290921790915591909701516002909701969096555093949350505050565b805b81146101cd57600080fd5b50565b80356101db816101c0565b92915050565b634e487b7160e01b600052604160045260246000fd5b601f19601f830116810181811067ffffffffffffffff8211171561021d5761021d6101e1565b6040525050565b600061022f60405190565b905061023b82826101f7565b919050565b600067ffffffffffffffff82111561025a5761025a6101e1565b601f19601f83011660200192915050565b82818337506000910152565b600061028a61028584610240565b610224565b9050828152602081018484840111156102a5576102a5600080fd5b6102b084828561026b565b509392505050565b600082601f8301126102cc576102cc600080fd5b81356102dc848260208601610277565b949350505050565b8015156101c2565b80356101db816102e4565b60008060006060848603121561030f5761030f600080fd5b600061031b86866101d0565b935050602084013567ffffffffffffffff81111561033b5761033b600080fd5b610347868287016102b8565b9250506040610358868287016102ec565b9150509250925092565b8115158152602081016101db565b60006001600160a01b0382166101db565b6101c281610370565b80356101db81610381565b600080600080600060a086880312156103b0576103b0600080fd5b60006103bc88886101d0565b955050602086013567ffffffffffffffff8111156103dc576103dc600080fd5b6103e8888289016102b8565b94505060406103f9888289016101d0565b935050606061040a8882890161038a565b925050608061041b888289016101d0565b9150509295509295909350565b602080825281016101db81601d81527f54686520736574746572206973206e6f74207468652069737375657221000000602082015260400190565b60005b8381101561047e578181015183820152602001610466565b50506000910152565b6000610491825190565b61049f818560208601610463565b9290920192915050565b6101db8183610487565b634e487b7160e01b600052602260045260246000fd5b6002810460018216806104dd57607f821691505b6020821081036104ef576104ef6104b3565b50919050565b60006101db6105018381565b90565b61050d836104f5565b815460001960089490940293841b1916921b91909117905550565b6000610535818484610504565b505050565b818110156105555761054d600082610528565b60010161053a565b5050565b601f821115610535576000818152602090206020601f850104810160208510156105805750805b6105926020601f86010483018261053a565b5050505050565b815167ffffffffffffffff8111156105b3576105b36101e1565b6105bd82546104c9565b6105c8828285610559565b506020601f8211600181146105fd57600083156105e55750848201515b600019600885021c1981166002850217855550610592565b600084815260208120601f198516915b8281101561062d578785015182556020948501946001909201910161060d565b508482101561064a5783870151600019601f87166008021c191681555b5050505060020260010190555056fea26469706673582212208e625034e0fb0fab401cd13b9fc8e33f093dac29b3eb69c93e3dcd176a01f10e64736f6c63430008130033",
  "immutableReferences": {},
  "source": "// SPDX-License-Identifier: UNLICENSED\r\npragma solidity ^0.8.19 <0.9.0;\r\n\r\n// struct Degree {\r\n// \tstring degreeType;\r\n// \tstring name;\r\n// }\r\n\r\n// struct CredentialSubject {\r\n// \tstring id;\r\n// \tDegree degree;\r\n// }\r\n\r\nstruct Proof {\r\n\tstring proofType;\r\n\tstring creationDate;\r\n\tstring verificationMethod;\r\n\tstring proofPurpose;\r\n\tstring proofValue;\r\n}\r\n\r\nstruct VerifiableCredential {\r\n\tstring[] context;\r\n\tstring id;\r\n\tstring[] credentialTypes;\r\n\tstring issuer;\r\n\tstring issuanceDate;\r\n\t// CredentialSubject credentialSubject;\r\n\tProof proof;\r\n}\r\n\r\n//  ?? non mi ricordo di preciso chi  -\r\n//  Issuer  l'inheritanceOwner quando viene invoato il contratto\r\n// \t\tcontratto la prima volta ma che succede quando \r\n//\t\tinheritanceOwner muore???\r\nstruct Issuer {\r\n\taddress issuerAddress;\r\n\t// string issuerDid;\r\n\t// string signature;\r\n}\r\n\r\n//  per il momento ogni account con amount != 0  attivo\r\nstruct Account {\r\n\tuint accountId;\r\n\taddress payable accountAddress;\r\n\tuint accountAmount;\r\n\t// bool active;\r\n}\r\n\r\n//  in questa maniera se l'utente perde la chiave privata\r\n//\t\tson cazzi perch gli inculano la sua fetta di eredit\r\nstruct Heir {\r\n\tuint heirId;\r\n\tstring heirDid;\r\n\tbool delegated;\r\n\t// bool active;\r\n\tmapping(uint => Account) wallet;\r\n}\r\n\r\ncontract Inheritance {\r\n\r\n\tVerifiableCredential private vC;\r\n\tIssuer private inheritanceOwner;\r\n\t\r\n\t// did  Heir\r\n\tmapping(string => Heir) private heirMap; \r\n\r\n\tconstructor() {\t\r\n\t\tinheritanceOwner = Issuer(msg.sender);\r\n\t}\r\n\r\n\tfunction setHeir(\r\n\t\tuint _heirId,\r\n\t\tstring memory _heirDid,\r\n\t\tbool _delegation\r\n\t) public returns (bool) {\r\n\t\trequire(msg.sender == inheritanceOwner.issuerAddress, 'The setter is not the issuer!');\r\n\r\n\t\tHeir storage newHeir = heirMap[_heirDid];\r\n\t\tnewHeir.heirId = _heirId;\r\n\t\tnewHeir.heirDid = _heirDid;\r\n\t\tnewHeir.delegated = _delegation;\r\n\r\n\t\treturn true;\r\n\t}\r\n\r\n\tfunction setHeirAddresses(\r\n\t\tuint index,\r\n\t\tstring memory _heirDid,\r\n\t\tuint _accountId,\r\n\t\taddress payable _accountAddress,\r\n\t\tuint _accountAmount\r\n\t) public returns (bool) {\r\n\t\trequire(msg.sender == inheritanceOwner.issuerAddress, 'The setter is not the issuer!');\r\n\t\t\r\n\t\theirMap[_heirDid].wallet[index] = Account(_accountId, _accountAddress, _accountAmount);\r\n\r\n\t\treturn true;\r\n\t}\r\n\r\n\t// function modifyHeir() public {}\t//TODO\r\n\t\r\n}\r\n",
  "sourcePath": "C:\\Users\\raffa\\Desktop\\UNIPD\\3 ANNO\\II SEM\\TIROCINIO\\Sync Lab\\ArmtanceServer\\server\\contracts\\Inheritance.sol",
  "compiler": {
    "name": "solc",
    "version": "0.8.19+commit.7dd6d404.Emscripten.clang"
  },
  "schemaVersion": "3.4.14",
  "updatedAt": "2023-06-07T18:00:58.676Z",
  "devdoc": {
    "kind": "dev",
    "methods": {},
    "version": 1
  },
  "userdoc": {
    "kind": "user",
    "methods": {},
    "version": 1
  }
}